:100000000C9462000C948A000C948A000C948A0070
:100010000C948A000C948A000C948A000C948A0038
:100020000C948A000C948A000C948A000C948A0028
:100030000C948A000C948A000C948A000C948A0018
:100040000C948F040C948A000C9411020C945402AA
:100050000C948A000C948A000C948A000C948A00F8
:100060000C948A000C948A00000000070002010032
:100070000003040600000000000000000102040864
:100080001020408001020408102001020408102002
:10009000040404040404040402020202020203032E
:1000A00003030303000000002300260029000000D2
:1000B0000000250028002B0000000000240027007D
:1000C0002A00100311241FBECFEFD8E0DEBFCDBF42
:1000D00011E0A0E0B1E0E2E8FAE002C005900D9284
:1000E000A031B107D9F711E0A0E1B1E001C01D9244
:1000F000A33CB107E1F710E0C4ECD0E004C02297C4
:10010000FE010E943B05C23CD107C9F70E9466036D
:100110000C9414050C94000040E855E260E070E097
:1001200080E191E00E948F0262E082E00E94DD00A7
:1001300061E08DE00C94DD00CF93DF9382E00E94BC
:100140004C01EC014AE050E0BC0180E191E00E94EA
:100150007504219711F460E001C061E08DE0DF914A
:10016000CF910C941501833069F028F48130A1F00F
:10017000823011F514C08630B1F08730C1F0843080
:10018000D9F404C0809180008F7703C080918000F3
:100190008F7D80938000089584B58F7702C084B5E9
:1001A0008F7D84BD08958091B0008F7703C08091CA
:1001B000B0008F7D8093B0000895CF93DF9390E0DF
:1001C000FC01E458FF4F4491FC01E057FF4F84913C
:1001D000882341F190E0880F991FFC01E854FF4FFC
:1001E00025913491D90182559F4FFC0185919491BD
:1001F000C82FD92F9FB7F8948C91611106C04095F4
:1002000084238C938881842308C0623041F4242F96
:10021000209582238C938881842B888302C0842B31
:100220008C939FBFDF91CF9108950F931F93CF932E
:10023000DF931F92CDB7DEB7282F30E0F901E859E0
:10024000FF4F8491F901E458FF4F1491F901E057F1
:10025000FF4F04910023D1F0882321F069830E948D
:10026000B3006981E02FF0E0EE0FFF1FE255FF4F72
:1002700085919491DC019FB7F8948C91611103C032
:100280001095812301C0812B8C939FBF0F90DF912C
:10029000CF911F910F910895CF93DF93282F30E0D6
:1002A000F901E859FF4F8491F901E458FF4FD491C7
:1002B000F901E057FF4FC491CC2389F081110E94CE
:1002C000B300EC2FF0E0EE0FFF1FEC55FF4F8591D0
:1002D0009491DC018C918D2321E030E011F420E039
:1002E00030E0C901DF91CF910895FC0184859585A7
:1002F000FC01E05CFF4F20813181FC01EE5BFF4F90
:1003000080819181281B390B2F733327C9010895F0
:10031000FC0184859585FC01E05CFF4F40815181A3
:10032000FC01EE5BFF4F208131814217530741F002
:100330000190F081E02DE80FF91F208130E002C02C
:100340002FEF3FEFC9010895FC0184859585FC01DD
:10035000E05CFF4F40815181FC01EE5BFF4F20814B
:1003600031814217530781F0A081B181A80FB91FD5
:100370008C91208131812F5F3F4F2F733327318341
:100380002083282F30E002C02FEF3FEFC9010895EE
:10039000FC0181A1882329F0A489B5898C9186FF6D
:1003A000FBCF11A20895CF93DF93FC0126853785FB
:1003B000D901A05CBF4F8D919C91119701968F73CD
:1003C0009927E901CE5BDF4F488159818417950752
:1003D000D9F30D90BC91A02DA20FB31F6C93A685ED
:1003E000B785A05CBF4F11969C938E93A689B78961
:1003F0002C9181E090E0078C02C0880F991F0A942D
:10040000E2F7282B2C9381E081A30488F589E02D65
:1004100080818064808381E090E0DF91CF910895B6
:1004200008951F920F920FB60F9211242F933F93AE
:100430004F938F939F93EF93FF938091C00082FD22
:100440001CC04091C6008091B6019091B701019601
:100450008F7399272091B8013091B90182179307C2
:1004600071F0E091B601F091B701EA58FE4F408378
:100470009093B7018093B60102C08091C600FF91AE
:10048000EF919F918F914F913F912F910F900FBEC0
:100490000F901F90189580E191E00E947501892BC3
:1004A00011F00C94100208951F920F920FB60F9244
:1004B00011242F933F938F939F93EF93FF9320915A
:1004C0007201309173018091740190917501281728
:1004D000390731F48091C1008F7D8093C10014C031
:1004E000E0917401F0917501EE5CFE4F20818091E6
:1004F00074019091750101968F73992790937501FE
:10050000809374012093C600FF91EF919F918F918A
:100510003F912F910F900FBE0F901F901895CF9283
:10052000DF92EF92FF92CF93DF93EC016A017B01A0
:10053000411581EE580761057105F9F0EC89FD89D7
:1005400081E090E008A002C0880F991F0A94E2F7AA
:10055000808360E079E08DE390E0A70196010E943E
:10056000170521503109410951095695479537958D
:100570002795211580E1380798F0EC89FD891082D4
:1005800060E874E88EE190E0A70196010E941705EB
:1005900021503109410951095695479537952795BD
:1005A000E889F9893083EA89FB89208319A2EE89D9
:1005B000FF89408181E090E09C010C8C02C0220FF9
:1005C000331F0A94E2F7422B4083EE89FF89408172
:1005D0009C010D8C02C0220F331F0A94E2F7422BBC
:1005E0004083EE89FF8940819C010E8C02C0220F5E
:1005F000331F0A94E2F7422B4083EE89FF89208162
:100600000F8C02C0880F991F0A94E2F7809582230D
:100610008083DF91CF91FF90EF90DF90CF9008958E
:10062000109213011092120188EE93E0A0E0B0E066
:100630008093140190931501A0931601B0931701B4
:1006400084E091E0909311018093100186E791E09E
:1006500090931D0180931C0182E391E090931F0110
:1006600080931E0185EC90E09093210180932001FE
:1006700084EC90E0909323018093220180EC90E041
:10068000909325018093240181EC90E090932701C1
:100690008093260182EC90E09093290180932801B9
:1006A00086EC90E090932B0180932A0184E0809364
:1006B0002C0183E080932D0187E080932E0185E05B
:1006C00080932F0181E08093300108950E94D90426
:1006D0000E948C00CBE4D2E00E949C002097E1F3C2
:1006E0000E944B02F9CFCF92DF92EF92FF920F93CD
:1006F0001F93CF93DF936C01EB017A01E60EF71E97
:1007000000E010E00BC06991D601ED91FC910190E1
:10071000F081E02DC6010995080F191FCE15DF05E0
:1007200091F7C801DF91CF911F910F91FF90EF904A
:10073000DF90CF9008956115710581F0DB010D9078
:100740000020E9F7AD0141505109461B570BDC0170
:10075000ED91FC910280F381E02D099480E090E01E
:100760000895DC01ED91FC910190F081E02D099458
:100770000F931F93CF93DF93EC016DE00E94B103C1
:100780008C016AE0CE010E94B1039C01200F311F51
:10079000C901DF91CF911F910F9108954F925F9200
:1007A0006F927F929F92AF92BF92CF92DF92EF9221
:1007B000FF920F931F93CF93DF93CDB7DEB7A1972F
:1007C0000FB6F894DEBF0FBECDBF5C016A017B019E
:1007D000922E19A281E0821710F08AE0982E8E01E5
:1007E0000F5D1F4F492C512C612C712CC701B60194
:1007F000A30192010E9417058C2D929E801911244D
:10080000015011098A3014F4805D01C0895CF8013F
:10081000808369017A01C114D104E104F10431F744
:10082000B801C5010E949B03A1960FB6F894DEBFE4
:100830000FBECDBFDF91CF911F910F91FF90EF9031
:10084000DF90CF90BF90AF909F907F906F905F9020
:100850004F900895CF92DF92EF92FF920F931F93E4
:10086000CF93DF93EC016A017B012115310579F407
:10087000E881F9810190F081E02D642FDF91CF9123
:100880001F910F91FF90EF90DF90CF9009942A3045
:10089000310519F477FD0EC02AE0B701A601CE019B
:1008A000DF91CF911F910F91FF90EF90DF90CF904C
:1008B0000C94CE036DE20E94B1038C0144275527AE
:1008C000BA014C195D096E097F092AE0CE010E9428
:1008D000CE03080F191FC801DF91CF911F910F910F
:1008E000FF90EF90DF90CF9008950F931F93CF93D9
:1008F000DF93EC019A01AB01662757FD6095762FD7
:100900000E942A048C01CE010E94B8039801280F8E
:10091000391FC901DF91CF911F910F9108951F9247
:100920000F920FB60F9211242F933F938F939F93A3
:10093000AF93BF938091BA019091BB01A091BC018C
:10094000B091BD013091C201232F2D5F2D3720F4CE
:100950000196A11DB11D05C0232F2A570296A11D86
:10096000B11D2093C2018093BA019093BB01A09363
:10097000BC01B093BD018091BE019091BF01A091D7
:10098000C001B091C1010196A11DB11D8093BE01AE
:100990009093BF01A093C001B093C101BF91AF91EB
:1009A0009F918F913F912F910F900FBE0F901F90AD
:1009B0001895789484B5826084BD84B5816084BDC7
:1009C00085B5826085BD85B5816085BDEEE6F0E0C8
:1009D000808181608083E1E8F0E010828081826024
:1009E0008083808181608083E0E8F0E080818160A5
:1009F0008083E1EBF0E0808184608083E0EBF0E0D5
:100A0000808181608083EAE7F0E080818460808378
:100A10008081826080838081816080838081806822
:100A200080831092C1000895F8940C943F05A1E2D0
:100A30001A2EAA1BBB1BFD010DC0AA1FBB1FEE1F58
:100A4000FF1FA217B307E407F50720F0A21BB30BA3
:100A5000E40BF50B661F771F881F991F1A9469F71F
:100A600060957095809590959B01AC01BD01CF017B
:100A70000895EE0FFF1F0590F491E02D0994F8946E
:020A8000FFCFA6
:100A820000000000D30173037501A4018801C801AD
:00000001FF
