:100000000C945C000C9479000C9479000C947900A9
:100010000C9479000C9479000C9479000C9479007C
:100020000C9479000C9479000C9479000C9479006C
:100030000C9479000C9479000C9479000C9479005C
:100040000C9435010C9479000C9479000C9479008F
:100050000C9479000C9479000C9479000C9479003C
:100060000C9479000C947900000000070002010054
:100070000003040600000000000000000102040864
:100080001020408001020408102001020408102002
:10009000040404040404040402020202020203032E
:1000A0000303030300000000250028002B000000CC
:1000B0000000240027002A0011241FBECFEFD8E043
:1000C000DEBFCDBF11E0A0E0B1E0EEE7F3E002C09B
:1000D00005900D92A030B107D9F711E0A0E0B1E092
:1000E00001C01D92A930B107E1F70E9428010C94CC
:1000F000BA010C940000CF93C2E061E08C2F0E9403
:10010000B900CF5FCA30C9F7C2E060E08C2F0E940F
:10011000F100CF5FCA30C9F7CF91089508958330B9
:1001200069F028F48130A1F0823011F514C08630D6
:10013000B1F08730C1F08430D9F404C080918000E0
:100140008F7703C0809180008F7D80938000089519
:1001500084B58F7702C084B58F7D84BD089580916A
:10016000B0008F7703C08091B0008F7D8093B00086
:100170000895CF93DF9390E0FC01E458FF4F449142
:10018000FC01E057FF4F8491882341F190E0880FF4
:10019000991FFC01E255FF4F25913491D9018C55EF
:1001A0009F4FFC0185919491C82FD92F9FB7F89448
:1001B0008C91611106C0409584238C93888184239F
:1001C00008C0623041F4242F209582238C938881CB
:1001D000842B888302C0842B8C939FBFDF91CF91A7
:1001E00008950F931F93CF93DF931F92CDB7DEB780
:1001F000282F30E0F901E859FF4F8491F901E458C4
:10020000FF4F1491F901E057FF4F04910023D1F003
:10021000882321F069830E948F006981E02FF0E03C
:10022000EE0FFF1FEC55FF4F85919491DC019FB7B6
:10023000F8948C91611103C01095812301C0812B2A
:100240008C939FBF0F90DF91CF911F910F910895D5
:100250000E947F010E947B00C0E0D0E00E948E00DF
:100260002097E1F30E940000F9CF1F920F920FB682
:100270000F9211242F933F938F939F93AF93BF932C
:100280008091000190910101A0910201B0910301C0
:1002900030910801232F2D5F2D3720F40196A11DE9
:1002A000B11D05C0232F2A570296A11DB11D209311
:1002B00008018093000190930101A0930201B09383
:1002C00003018091040190910501A0910601B09174
:1002D00007010196A11DB11D8093040190930501B2
:1002E000A0930601B0930701BF91AF919F918F91A9
:1002F0003F912F910F900FBE0F901F9018957894FB
:1003000084B5826084BD84B5816084BD85B582601A
:1003100085BD85B5816085BDEEE6F0E080818160B8
:100320008083E1E8F0E010828081826080838081B8
:1003300081608083E0E8F0E0808181608083E1EB90
:10034000F0E0808184608083E0EBF0E08081816078
:100350008083EAE7F0E0808184608083808182602E
:100360008083808181608083808180688083109217
:0E037000C1000895F8940C94BD01F894FFCFDD
:00000001FF
