:100000000C945C000C9479000C9479000C947900A9
:100010000C9479000C9479000C9479000C9479007C
:100020000C9479000C9479000C9479000C9479006C
:100030000C9479000C9479000C9479000C9479005C
:100040000C9409010C9479000C9479000C947900BB
:100050000C9479000C9479000C9479000C9479003C
:100060000C9479000C947900000000070002010054
:100070000003040600000000000000000102040864
:100080001020408001020408102001020408102002
:10009000040404040404040402020202020203032E
:1000A0000303030300000000250028002B000000CC
:1000B0000000240027002A0011241FBECFEFD8E043
:1000C000DEBFCDBF11E0A0E0B1E0E2E1F5E002C0AB
:1000D00005900D92A430B107D9F711E0A4E0B1E08A
:1000E00001C01D92AF30B107E1F70E9477020C9476
:1000F00084020C94000061E0809102010C940802DB
:100100006091040170910501809102010E94A80094
:10011000209100013091010180910401909105012D
:10012000820F931F9093050180930401009719F0AB
:100130008F3F910539F431952195310930930101B3
:10014000209300016CE370E080E090E00C947D016E
:100150001F93CF93DF93182FEB0161E00E940802F9
:10016000209711F460E004C0CF3FD10539F461E07D
:10017000812FDF91CF911F910C944002E12FF0E08D
:10018000E859FF4FE491E330B9F028F4E13051F041
:10019000E230B1F50CC0E63019F1E73049F1E43056
:1001A00079F514C084B5806884BDC7BD2EC084B500
:1001B000806284BDC8BD29C0809180008068809322
:1001C0008000D0938900C09388001FC08091800078
:1001D000806280938000D0938B00C0938A0015C00A
:1001E0008091B00080688093B000C093B3000DC0D0
:1001F0008091B00080628093B000C093B40005C0CD
:10020000C038D1050CF0B3CFADCFDF91CF911F91A6
:1002100008951F920F920FB60F9211242F933F93C0
:100220008F939F93AF93BF938091060190910701A5
:10023000A0910801B091090130910E01232F2D5F8B
:100240002D3720F40196A11DB11D05C0232F2A577B
:100250000296A11DB11D20930E018093060190937B
:100260000701A0930801B093090180910A019091C0
:100270000B01A0910C01B0910D010196A11DB11DC2
:1002800080930A0190930B01A0930C01B0930D0190
:10029000BF91AF919F918F913F912F910F900FBE82
:1002A0000F901F9018950F931F939FB7F89400918C
:1002B0000A0110910B0120910C0130910D0186B5BE
:1002C000A89B06C08F3F21F00F5F1F4F2F4F3F4F5E
:1002D0009FBF322F212F102F0027080F111D211D26
:1002E000311D42E0000F111F221F331F4A95D1F725
:1002F000B801C9011F910F910895CF92DF92EF923B
:10030000FF92CF93DF936B017C010E945301EB01BD
:100310000EC00E9453016C1B7D0B683E734038F089
:1003200081E0C81AD108E108F108C851DC4FC114B6
:10033000D104E104F10469F7DF91CF91FF90EF90D0
:10034000DF90CF900895789484B5826084BD84B5A1
:10035000816084BD85B5826085BD85B5816085BDC0
:10036000EEE6F0E0808181608083E1E8F0E01082D9
:10037000808182608083808181608083E0E8F0E01A
:10038000808181608083E1EBF0E080818460808304
:10039000E0EBF0E0808181608083EAE7F0E080813B
:1003A000846080838081826080838081816080839B
:1003B0008081806880831092C1000895833069F045
:1003C00028F48130A1F0823011F514C08630B1F0EC
:1003D0008730C1F08430D9F404C0809180008F77D9
:1003E00003C0809180008F7D80938000089584B544
:1003F0008F7702C084B58F7D84BD08958091B00051
:100400008F7703C08091B0008F7D8093B0000895F6
:10041000CF93DF9390E0FC01E458FF4F4491FC013F
:10042000E057FF4F8491882341F190E0880F991F96
:10043000FC01E255FF4F25913491D9018C559F4F16
:10044000FC0185919491C82FD92F9FB7F8948C9176
:10045000611106C0409584238C938881842308C051
:10046000623041F4242F209582238C938881842B41
:10047000888302C0842B8C939FBFDF91CF91089516
:100480000F931F93CF93DF931F92CDB7DEB7282F23
:1004900030E0F901E859FF4F8491F901E458FF4F2A
:1004A0001491F901E057FF4F04910023D1F0882304
:1004B00021F069830E94DE016981E02FF0E0EE0FF8
:1004C000FF1FEC55FF4F85919491DC019FB7F89485
:1004D0008C91611103C01095812301C0812B8C93F5
:1004E0009FBF0F90DF91CF911F910F9108950E94B0
:1004F000A3010E947B00C0E0D0E00E948000209712
:10050000E1F30E940000F9CFF8940C948702F8946C
:02051000FFCF1B
:0405120005000900D7
:00000001FF
