:100000000C9435000C945D000C945D000C945D0024
:100010000C945D000C945D000C945D000C945D00EC
:100020000C945D000C945D000C945D000C945D00DC
:100030000C945D000C945D000C945D000C945D00CC
:100040000C9498000C945D000C9409020C944C02E2
:100050000C945D000C945D000C945D000C945D00AC
:100060000C945D000C945D00080311241FBECFEFBB
:10007000D8E0DEBFCDBF11E0A0E0B1E0E8E6F9E0F6
:1000800002C005900D92A231B107D9F711E0A2E1AB
:10009000B1E001C01D92A53CB107E1F710E0CAE64E
:1000A000D0E004C02297FE010E94AE04C836D107FA
:1000B000C9F70E945E030C9487040C94000040E88A
:1000C00055E260E070E08BE191E00C9487028EE0F5
:1000D0000E9477004AE050E0BC018BE191E00E9471
:1000E0006D0461E070E080E090E00C940C018E30D3
:1000F00008F08E5087702091000140E4249F900109
:100100001124822B80937C0080917A0080648093FC
:100110007A0080917A0086FDFCCF209178003091A2
:100120007900932F80E0AC01422B9A01C901089518
:100130001F920F920FB60F9211242F933F938F931C
:100140009F93AF93BF938091120190911301A0915F
:100150001401B091150130911A01232F2D5F2D3715
:1001600020F40196A11DB11D05C0232F2A57029628
:10017000A11DB11D20931A018093120190931301C8
:10018000A0931401B093150180911601909117016D
:10019000A0911801B09119010196A11DB11D809384
:1001A000160190931701A0931801B0931901BF9104
:1001B000AF919F918F913F912F910F900FBE0F9014
:1001C0001F9018950F931F939FB7F89400911601F5
:1001D00010911701209118013091190186B5A89B43
:1001E00006C08F3F21F00F5F1F4F2F4F3F4F9FBF24
:1001F000322F212F102F0027080F111D211D311D17
:1002000042E0000F111F221F331F4A95D1F7B8019A
:10021000C9011F910F910895CF92DF92EF92FF9243
:10022000CF93DF936B017C010E94E200EB010EC0D3
:100230000E94E2006C1B7D0B683E734038F081E049
:10024000C81AD108E108F108C851DC4FC114D10423
:10025000E104F10469F7DF91CF91FF90EF90DF9017
:10026000CF900895789484B5826084BD84B5816010
:1002700084BD85B5826085BD85B5816085BDEEE6AE
:10028000F0E0808181608083E1E8F0E0108280818D
:1002900082608083808181608083E0E8F0E08081FB
:1002A00081608083E1EBF0E0808184608083E0EB1B
:1002B000F0E0808181608083EAE7F0E08081846003
:1002C000808380818260808380818160808380815F
:1002D000806880831092C1000895FC018485958513
:1002E000FC01E05CFF4F20813181FC01EE5BFF4FA0
:1002F00080819181281B390B2F733327C901089501
:10030000FC0184859585FC01E05CFF4F40815181B3
:10031000FC01EE5BFF4F208131814217530741F012
:100320000190F081E02DE80FF91F208130E002C03C
:100330002FEF3FEFC9010895FC0184859585FC01ED
:10034000E05CFF4F40815181FC01EE5BFF4F20815B
:1003500031814217530781F0A081B181A80FB91FE5
:100360008C91208131812F5F3F4F2F733327318351
:100370002083282F30E002C02FEF3FEFC9010895FE
:10038000FC0181A1882329F0A489B5898C9186FF7D
:10039000FBCF11A20895CF93DF93FC01268537850B
:1003A000D901A05CBF4F8D919C91119701968F73DD
:1003B0009927E901CE5BDF4F488159818417950762
:1003C000D9F30D90BC91A02DA20FB31F6C93A685FD
:1003D000B785A05CBF4F11969C938E93A689B78971
:1003E0002C9181E090E0078C02C0880F991F0A943D
:1003F000E2F7282B2C9381E081A30488F589E02D76
:1004000080818064808381E090E0DF91CF910895C6
:1004100008951F920F920FB60F9211242F933F93BE
:100420004F938F939F93EF93FF938091C00082FD32
:100430001CC04091C6008091C1019091C2010196FB
:100440008F7399272091C3013091C40182179307BC
:1004500071F0E091C101F091C201EF57FE4F40836E
:100460009093C2018093C10102C08091C600FF91A8
:10047000EF919F918F914F913F912F910F900FBED0
:100480000F901F9018958BE191E00E946D01892BD0
:1004900011F00C94080208951F920F920FB60F925C
:1004A00011242F933F938F939F93EF93FF9320916A
:1004B0007D0130917E0180917F019091800128170C
:1004C000390731F48091C1008F7D8093C10014C041
:1004D000E0917F01F0918001E35CFE4F20818091EB
:1004E0007F019091800101968F73992790938001ED
:1004F00080937F012093C600FF91EF919F918F9190
:100500003F912F910F900FBE0F901F901895CF9293
:10051000DF92EF92FF92CF93DF93EC016A017B01B0
:10052000411581EE580761057105F9F0EC89FD89E7
:1005300081E090E008A002C0880F991F0A94E2F7BA
:10054000808360E079E08DE390E0A70196010E944E
:100550008A0421503109410951095695479537952B
:100560002795211580E1380798F0EC89FD891082E4
:1005700060E874E88EE190E0A70196010E948A0489
:1005800021503109410951095695479537952795CD
:10059000E889F9893083EA89FB89208319A2EE89E9
:1005A000FF89408181E090E09C010C8C02C0220F09
:1005B000331F0A94E2F7422B4083EE89FF89408182
:1005C0009C010D8C02C0220F331F0A94E2F7422BCC
:1005D0004083EE89FF8940819C010E8C02C0220F6E
:1005E000331F0A94E2F7422B4083EE89FF89208172
:1005F0000F8C02C0880F991F0A94E2F7809582231E
:100600008083DF91CF91FF90EF90DF90CF9008959E
:1006100010921E0110921D0188EE93E0A0E0B0E060
:1006200080931F0190932001A0932101B093220198
:1006300085E091E090931C0180931B0181E891E09B
:1006400090932801809327018DE391E090932A01F4
:100650008093290185EC90E090932C0180932B01ED
:1006600084EC90E090932E0180932D0180EC90E03B
:100670009093300180932F0181EC90E090933201B0
:100680008093310182EC90E09093340180933301A8
:1006900086EC90E0909336018093350184E080935E
:1006A000370183E08093380187E08093390185E04A
:1006B00080933A0181E080933B0108950E943201CA
:1006C0000E945F00C3E4D2E00E9467002097E1F33C
:1006D0000E944302F9CFCF92DF92EF92FF920F93E5
:1006E0001F93CF93DF936C01EB017A01E60EF71EA7
:1006F00000E010E00BC06991D601ED91FC910190F2
:10070000F081E02DC6010995080F191FCE15DF05F0
:1007100091F7C801DF91CF911F910F91FF90EF905A
:10072000DF90CF9008956115710581F0DB010D9088
:100730000020E9F7AD0141505109461B570BDC0180
:10074000ED91FC910280F381E02D099480E090E02E
:100750000895DC01ED91FC910190F081E02D099468
:100760000F931F93CF93DF93EC016DE00E94A903D9
:100770008C016AE0CE010E94A9039C01200F311F69
:10078000C901DF91CF911F910F9108954F925F9210
:100790006F927F929F92AF92BF92CF92DF92EF9231
:1007A000FF920F931F93CF93DF93CDB7DEB7A1973F
:1007B0000FB6F894DEBF0FBECDBF5C016A017B01AE
:1007C000922E19A281E0821710F08AE0982E8E01F5
:1007D0000F5D1F4F492C512C612C712CC701B601A4
:1007E000A30192010E948A048C2D929E80191124EB
:1007F000015011098A3014F4805D01C0895CF80150
:10080000808369017A01C114D104E104F10431F754
:10081000B801C5010E949303A1960FB6F894DEBFFC
:100820000FBECDBFDF91CF911F910F91FF90EF9041
:10083000DF90CF90BF90AF909F907F906F905F9030
:100840004F900895CF92DF92EF92FF920F931F93F4
:10085000CF93DF93EC016A017B012115310579F417
:10086000E881F9810190F081E02D642FDF91CF9133
:100870001F910F91FF90EF90DF90CF9009942A3055
:10088000310519F477FD0EC02AE0B701A601CE01AB
:10089000DF91CF911F910F91FF90EF90DF90CF905C
:1008A0000C94C6036DE20E94A9038C0144275527CE
:1008B000BA014C195D096E097F092AE0CE010E9438
:1008C000C603080F191FC801DF91CF911F910F9127
:1008D000FF90EF90DF90CF9008950F931F93CF93E9
:1008E000DF93EC019A01AB01662757FD6095762FE7
:1008F0000E9422048C01CE010E94B0039801280FAF
:10090000391FC901DF91CF911F910F910895F8947C
:100910000C94B204A1E21A2EAA1BBB1BFD010DC050
:10092000AA1FBB1FEE1FFF1FA217B307E407F5079F
:1009300020F0A21BB30BE40BF50B661F771F881F7B
:10094000991F1A9469F760957095809590959B0111
:10095000AC01BD01CF010895EE0FFF1F0590F4918A
:08096000E02D0994F894FFCF8B
:100968000100000000CB016B036D019C018001C0F8
:0209780001007C
:00000001FF
