:100000000C9462000C948A000C948A000C948A0070
:100010000C948A000C948A000C948A000C948A0038
:100020000C948A000C948A000C948A000C948A0028
:100030000C948A000C948A000C948A000C948A0018
:100040000C94AA000C948A000C94A6020C94E90269
:100050000C948A000C948A000C948A000C948A00F8
:100060000C948A000C948A00000000070002010032
:100070000003040600000000000000000102040864
:100080001020408001020408102001020408102002
:10009000040404040404040402020202020203032E
:1000A00003030303000000002300260029000000D2
:1000B0000000250028002B0000000000240027007D
:1000C0002A00A50311241FBECFEFD8E0DEBFCDBFAD
:1000D00011E0A0E0B1E0E2EAFAE002C005900D9282
:1000E000A231B107D9F711E0A2E1B1E001C01D9240
:1000F000A53CB107E1F710E0C4ECD0E004C02297C2
:10010000FE010E944B05C23CD107C9F70E94FB03C8
:100110000C9424050C94000040E855E260E070E087
:100120008BE191E00E94240360E0809100010C9437
:10013000A901809100010E94E1014AE050E0BC0168
:100140008BE191E00E940A0561E070E080E090E0C0
:100150000C941E011F920F920FB60F9211242F9331
:100160003F938F939F93AF93BF9380911201909190
:100170001301A0911401B091150130911A01232FA0
:100180002D5F2D3720F40196A11DB11D05C0232F31
:100190002A570296A11DB11D20931A0180931201C6
:1001A00090931301A0931401B0931501809116014F
:1001B00090911701A0911801B09119010196A11D0C
:1001C000B11D8093160190931701A0931801B0936D
:1001D0001901BF91AF919F918F913F912F910F90F6
:1001E0000FBE0F901F9018950F931F939FB7F89411
:1001F00000911601109117012091180130911901F9
:1002000086B5A89B06C08F3F21F00F5F1F4F2F4F71
:100210003F4F9FBF322F212F102F0027080F111D96
:10022000211D311D42E0000F111F221F331F4A956F
:10023000D1F7B801C9011F910F910895CF92DF92B4
:10024000EF92FF92CF93DF936B017C010E94F40049
:10025000EB010EC00E94F4006C1B7D0B683E7340E6
:1002600038F081E0C81AD108E108F108C851DC4F24
:10027000C114D104E104F10469F7DF91CF91FF903B
:10028000EF90DF90CF900895789484B5826084BD1C
:1002900084B5816084BD85B5826085BD85B581608A
:1002A00085BDEEE6F0E0808181608083E1E8F0E0EA
:1002B0001082808182608083808181608083E0E819
:1002C000F0E0808181608083E1EBF0E080818460F8
:1002D0008083E0EBF0E0808181608083EAE7F0E0FA
:1002E000808184608083808182608083808181605E
:1002F00080838081806880831092C100089583305C
:1003000069F028F48130A1F0823011F514C08630F4
:10031000B1F08730C1F08430D9F404C080918000FE
:100320008F7703C0809180008F7D80938000089537
:1003300084B58F7702C084B58F7D84BD0895809188
:10034000B0008F7703C08091B0008F7D8093B000A4
:100350000895CF93DF9390E0FC01E458FF4F449160
:10036000FC01E057FF4F8491882341F190E0880F12
:10037000991FFC01E854FF4F25913491D901825512
:100380009F4FFC0185919491C82FD92F9FB7F89466
:100390008C91611106C0409584238C9388818423BD
:1003A00008C0623041F4242F209582238C938881E9
:1003B000842B888302C0842B8C939FBFDF91CF91C5
:1003C0000895CF93DF93282F30E0F901E859FF4FCC
:1003D0008491F901E458FF4FD491F901E057FF4FA0
:1003E000C491CC2389F081110E947F01EC2FF0E0B1
:1003F000EE0FFF1FEC55FF4F85919491DC018C911E
:100400008D2321E030E011F420E030E0C901DF91DC
:10041000CF910895FC0184859585FC01E05CFF4F38
:1004200020813181FC01EE5BFF4F80819181281B8F
:10043000390B2F733327C9010895FC0184859585F5
:10044000FC01E05CFF4F40815181FC01EE5BFF4FFE
:10045000208131814217530741F00190F081E02D56
:10046000E80FF91F208130E002C02FEF3FEFC901F4
:100470000895FC0184859585FC01E05CFF4F408177
:100480005181FC01EE5BFF4F208131814217530700
:1004900081F0A081B181A80FB91F8C912081318199
:1004A0002F5F3F4F2F73332731832083282F30E076
:1004B00002C02FEF3FEFC9010895FC0181A18823FD
:1004C00029F0A489B5898C9186FFFBCF11A20895EC
:1004D000CF93DF93FC0126853785D901A05CBF4F00
:1004E0008D919C91119701968F739927E901CE5BAD
:1004F000DF4F4881598184179507D9F30D90BC913E
:10050000A02DA20FB31F6C93A685B785A05CBF4F2B
:1005100011969C938E93A689B7892C9181E090E0E7
:10052000078C02C0880F991F0A94E2F7282B2C939E
:1005300081E081A30488F589E02D80818064808337
:1005400081E090E0DF91CF91089508951F920F927E
:100550000FB60F9211242F933F934F938F939F9336
:10056000EF93FF938091C00082FD1CC04091C600B4
:100570008091C1019091C20101968F7399272091BA
:10058000C3013091C4018217930771F0E091C1015A
:10059000F091C201EF57FE4F40839093C2018093C8
:1005A000C10102C08091C600FF91EF919F918F9190
:1005B0004F913F912F910F900FBE0F901F90189564
:1005C0008BE191E00E940A02892B11F00C94A502A4
:1005D00008951F920F920FB60F9211242F933F93FD
:1005E0008F939F93EF93FF9320917D0130917E0134
:1005F00080917F01909180012817390731F4809113
:10060000C1008F7D8093C10014C0E0917F01F09103
:100610008001E35CFE4F208180917F0190918001F9
:1006200001968F7399279093800180937F01209387
:10063000C600FF91EF919F918F913F912F910F9065
:100640000FBE0F901F901895CF92DF92EF92FF92FE
:10065000CF93DF93EC016A017B01411581EE5807CE
:1006600061057105F9F0EC89FD8981E090E008A051
:1006700002C0880F991F0A94E2F7808360E079E056
:100680008DE390E0A70196010E94270521503109D2
:10069000410951095695479537952795211580E1D0
:1006A000380798F0EC89FD89108260E874E88EE1E3
:1006B00090E0A70196010E942705215031094109C8
:1006C00051095695479537952795E889F9893083DB
:1006D000EA89FB89208319A2EE89FF89408181E0A4
:1006E00090E09C010C8C02C0220F331F0A94E2F7A9
:1006F000422B4083EE89FF8940819C010D8C02C012
:10070000220F331F0A94E2F7422B4083EE89FF89C0
:1007100040819C010E8C02C0220F331F0A94E2F725
:10072000422B4083EE89FF8920810F8C02C0880F05
:10073000991F0A94E2F7809582238083DF91CF91FD
:10074000FF90EF90DF90CF90089510921E011092CD
:100750001D0188EE93E0A0E0B0E080931F0190932C
:100760002001A0932101B093220186E091E09093B3
:100770001C0180931B0181E891E0909328018093F4
:1007800027018DE391E090932A018093290185EC64
:1007900090E090932C0180932B0184EC90E0909357
:1007A0002E0180932D0180EC90E090933001809396
:1007B0002F0181EC90E0909332018093310182EC23
:1007C00090E0909334018093330186EC90E0909315
:1007D00036018093350184E08093370183E0809374
:1007E000380187E08093390185E080933A0181E008
:1007F00080933B0108950E9444010E948C00C0EE4A
:10080000D2E00E9499002097E1F30E94E002F9CF24
:10081000CF92DF92EF92FF920F931F93CF93DF93CC
:100820006C01EB017A01E60EF71E00E010E00BC050
:100830006991D601ED91FC910190F081E02DC60106
:100840000995080F191FCE15DF0591F7C801DF9133
:10085000CF911F910F91FF90EF90DF90CF9008956F
:100860006115710581F0DB010D900020E9F7AD0104
:1008700041505109461B570BDC01ED91FC91028060
:10088000F381E02D099480E090E00895DC01ED9182
:10089000FC910190F081E02D09940F931F93CF9369
:1008A000DF93EC016DE00E9446048C016AE0CE010A
:1008B0000E9446049C01200F311FC901DF91CF9196
:1008C0001F910F9108954F925F926F927F929F9226
:1008D000AF92BF92CF92DF92EF92FF920F931F934E
:1008E000CF93DF93CDB7DEB7A1970FB6F894DEBFF5
:1008F0000FBECDBF5C016A017B01922E19A281E07F
:10090000821710F08AE0982E8E010F5D1F4F492C40
:10091000512C612C712CC701B601A30192010E94D8
:1009200027058C2D929E80191124015011098A30BF
:1009300014F4805D01C0895CF801808369017A014B
:10094000C114D104E104F10431F7B801C5010E94DA
:100950003004A1960FB6F894DEBF0FBECDBFDF9175
:10096000CF911F910F91FF90EF90DF90CF90BF90AC
:10097000AF909F907F906F905F904F900895CF922F
:10098000DF92EF92FF920F931F93CF93DF93EC01CF
:100990006A017B012115310579F4E881F981019023
:1009A000F081E02D642FDF91CF911F910F91FF9087
:1009B000EF90DF90CF9009942A30310519F477FD3C
:1009C0000EC02AE0B701A601CE01DF91CF911F91A1
:1009D0000F91FF90EF90DF90CF900C9463046DE245
:1009E0000E9446048C0144275527BA014C195D0921
:1009F0006E097F092AE0CE010E946304080F191FC7
:100A0000C801DF91CF911F910F91FF90EF90DF9080
:100A1000CF9008950F931F93CF93DF93EC019A012A
:100A2000AB01662757FD6095762F0E94BF048C01AD
:100A3000CE010E944D049801280F391FC901DF9192
:100A4000CF911F910F910895F8940C944F05A1E256
:100A50001A2EAA1BBB1BFD010DC0AA1FBB1FEE1F38
:100A6000FF1FA217B307E407F50720F0A21BB30B83
:100A7000E40BF50B661F771F881F991F1A9469F7FF
:100A800060957095809590959B01AC01BD01CF015B
:100A90000895EE0FFF1F0590F491E02D0994F8944E
:020AA000FFCF86
:100AA200020000000000680208040A0239021D0266
:020AB2005D02E3
:00000001FF
