:100000000C9463000C948B000C948B000C948B006C
:100010000C948B000C948B000C948B000C944D056D
:100020000C948B000C948B000C948B000C948B0024
:100030000C948B000C948B000C948B000C948B0014
:100040000C9475010C948B000C948B000C948B0019
:100050000C948B000C948B000C948B000C948B00F4
:100060000C948B000C948B00000000070002010030
:100070000003040600000000000000000102040864
:100080001020408001020408102001020408102002
:10009000040404040404040402020202020203032E
:1000A00003030303000000002300260029000000D2
:1000B0000000250028002B0000000000240027007D
:1000C0002A000200680111241FBECFEFD8E0DEBF76
:1000D000CDBF11E0A0E0B1E0E6EAFEE002C005908D
:1000E0000D92AA33B107D9F711E0AAE3B1E001C03C
:1000F0001D92A036B107E1F710E0C6ECD0E004C0D5
:100100002297FE010E944D07C43CD107C9F70E9407
:100110000C030C94A9050C94000061E08CE00E9493
:10012000740261E086E00E94740260E088E00E9450
:10013000740261E08DE00E94740261E08DE00C9435
:10014000AC024F925F926F927F92AF92BF92CF922A
:10015000DF92EF92FF920F931F93CF93DF93CDB770
:10016000DEB7E4970FB6F894DEBF0FBECDBF8AE1CD
:10017000E5E0F1E0DE015B9601900D928A95E1F7F2
:100180008AE1EFE1F1E0DE01119601900D928A958E
:10019000E1F78E010F5F1F4F7E018BE1E80EF11C2E
:1001A000670188EEA82E83E0B82EF8016191719165
:1001B0008F01C5010E94D9062B01F7016191719150
:1001C0007F01662457FC6094762CA301920186E09F
:1001D0000E941903C301B2010E94DF0526E636E63C
:1001E00046EA5FE30E9443060E94AC05882777FD3C
:1001F0008095982F0E94E90186E00E9438050C1531
:100200001D0599F6E4960FB6F894DEBF0FBECDBF7C
:10021000DF91CF911F910F91FF90EF90DF90CF90E2
:10022000BF90AF907F906F905F904F90089588E05F
:100230000E94E302909341018093400120913E018E
:1002400030913F018217930709F441C00197B9F536
:1002500025C061E08CE00E94AC02609102017091C7
:100260000301882777FD8095982F0E94E90160E0BF
:100270008CE00E94AC0260913C0170913D018827A6
:1002800077FD8095982F0E94E90180913A01909125
:100290003B01019690933B0180933A0120913A01F2
:1002A00030913B018091000190910101281739079D
:1002B00084F20E94A10010923B0110923A018091B9
:1002C00040019091410190933F0180933E01089538
:1002D00088EE93E02091020130910301821B930B81
:1002E00090933D0180933C0108951F920F920FB6A9
:1002F0000F9211242F933F938F939F93AF93BF93AC
:100300008091420190914301A0914401B091450137
:1003100030914A01232F2D5F2D3720F40196A11D26
:10032000B11D05C0232F2A570296A11DB11D209390
:100330004A018093420190934301A0934401B093FA
:1003400045018091460190914701A0914801B091EB
:1003500049010196A11DB11D80934601909347016B
:10036000A0934801B0934901BF91AF919F918F91A4
:100370003F912F910F900FBE0F901F9018950F93E4
:100380001F939FB7F8940091460110914701209167
:1003900048013091490186B5A89B06C08F3F21F0E6
:1003A0000F5F1F4F2F4F3F4F9FBF322F212F102F17
:1003B0000027080F111D211D311D42E0000F111FE4
:1003C000221F331F4A95D1F7B801C9011F910F9120
:1003D0000895CF92DF92EF92FF92CF93DF936B015C
:1003E0007C010E94BF01EB010EC00E94BF016C1B8B
:1003F0007D0B683E734038F081E0C81AD108E108EF
:10040000F108C851DC4FC114D104E104F10469F7CB
:10041000DF91CF91FF90EF90DF90CF900895789487
:1004200084B5826084BD84B5816084BD85B58260F9
:1004300085BD85B5816085BDEEE6F0E08081816097
:100440008083E1E8F0E01082808182608083808197
:1004500081608083E0E8F0E0808181608083E1EB6F
:10046000F0E0808184608083E0EBF0E08081816057
:100470008083EAE7F0E0808184608083808182600D
:1004800080838081816080838081806880831092F6
:10049000C1000895833069F028F48130A1F08230E2
:1004A00011F514C08630B1F08730C1F08430D9F432
:1004B00004C0809180008F7703C0809180008F7D81
:1004C00080938000089584B58F7702C084B58F7DB6
:1004D00084BD08958091B0008F7703C08091B000F3
:1004E0008F7D8093B0000895CF93DF9390E0FC015F
:1004F000E458FF4F4491FC01E057FF4F849188235B
:1005000041F190E0880F991FFC01E854FF4F2591BD
:100510003491D90182559F4FFC0185919491C82F48
:10052000D92F9FB7F8948C91611106C04095842310
:100530008C938881842308C0623041F4242F209555
:1005400082238C938881842B888302C0842B8C9394
:100550009FBFDF91CF9108950F931F93CF93DF93A8
:100560001F92CDB7DEB7282F30E0F901E859FF4FD1
:100570008491F901E458FF4F1491F901E057FF4FBE
:1005800004910023D1F0882321F069830E944A025C
:100590006981E02FF0E0EE0FFF1FE255FF4F8591DC
:1005A0009491DC019FB7F8948C91611103C0109570
:1005B000812301C0812B8C939FBF0F90DF91CF913E
:1005C0001F910F910895CF93DF93282F30E0F90109
:1005D000E859FF4F8491F901E458FF4FD491F90194
:1005E000E057FF4FC491CC2389F081110E944A0249
:1005F000EC2FF0E0EE0FFF1FEC55FF4F859194912B
:10060000DC018C918D2321E030E011F420E030E01A
:10061000C901DF91CF9108950E940F020E948D00C1
:10062000C0E0D0E00E9417012097E1F30E94000093
:10063000F9CF3F924F925F926F927F928F929F92EB
:10064000AF92BF92CF92DF92EF92FF920F931F93E0
:10065000CF93DF9300D000D0CDB7DEB78B01290157
:100660003A0190910401981721F09F3F09F0CAC107
:1006700004C0E2ECF0E034907EC080930401E2EC30
:10068000F0E034909FEF391609F4BCC1E1E03E166A
:1006900031F1F2E03F1609F448C031106CC014BCCF
:1006A00015BC94B5926094BD95B5916095BD282F09
:1006B00030E0F901E057FF4FE491F0E0EE0FFF1F4B
:1006C000E255FF4F4591549140935A0150935B017D
:1006D000F901E458FF4F2491209359014EC0109224
:1006E0008000109281009091810098609093810029
:1006F00090918100916090938100282F30E0F90162
:10070000E057FF4FE491F0E0EE0FFF1FE255FF4F7F
:10071000459154914093530150935401F901E45889
:10072000FF4F24912093520128C01092B0001092E4
:10073000B1009091B00092609093B0009091B100A0
:1007400091609093B100282F30E0F901E057FF4FFE
:10075000E491F0E0EE0FFF1FE255FF4F45915491F9
:1007600040934C0150934D01F901E458FF4F2491FF
:1007700020934B0102C037FC45C161E00E94740226
:100780004801A12CB12C60E072E18AE790E0A5015C
:1007900094010E940F07332019F082E03812B7C08D
:1007A00029833A834B835C8369017A0191E0C91AFA
:1007B000D108E108F108EFEFCE16D104E104F1040D
:1007C00009F008F49AC060E472E48FE090E0A501BB
:1007D00094010E940F0769017A01F1E0CF1AD10854
:1007E000E108F10882E0381219C09FEFC916D10460
:1007F000E104F10409F008F401C160E970ED83E05F
:1008000090E0A50194010E940F0769017A01E1E0DF
:10081000CE1AD108E108F10883E001C082E0FFEFC1
:10082000CF16D104E104F10409F008F467C068E4CC
:1008300078EE81E090E0A50194010E940F07690124
:100840007A0181E0C81AD108E108F1083320E1F00B
:1008500092E039121BC0EFEFCE16D104E104F1048F
:1008600009F008F4CDC064E274EF80E090E0A501E7
:1008700094010E940F0769017A01F1E0CF1AD108B3
:10088000E108F10885E003C083E001C084E09FEF48
:10089000C916D104E104F10489F180F162E17AE73B
:1008A00080E090E0A50194010E940F0769017A01A0
:1008B000E1E0CE1AD108E108F108311002C084E06D
:1008C00001C086E0FFEFCF16D104E104F104B1F0DE
:1008D000A8F0C980DA80EB80FC809AE0F594E79478
:1008E000D794C7949A95D1F781E0C81AD108E10846
:1008F000F108332031F087E007C081E0332011F0A8
:1009000003C085E085BD2BC08093B10028C069017C
:100910007A0191E0C91AD108E108F108C114D104A3
:10092000E1E0EE06F10488F068E478EE81E090E022
:10093000A50194010E940F0769017A01F1E0CF1A25
:10094000D108E108F10893E001C091E081E038129C
:1009500006C080918100887F892B8093810041149B
:1009600051046104710471F0D801AA0FBB1FA301E7
:1009700092010E94CE0628EE33E040E050E00E9453
:10098000ED0603C02FEF3FEFA90191E03916A1F06A
:10099000E2E03E1619F1311035C0C7BC20935C016E
:1009A00030935D0140935E0150935F0180916E0032
:1009B000826080936E0026C0D0928900C092880029
:1009C000209355013093560140935701509358019D
:1009D00080916F00826080936F0014C0C092B3005A
:1009E00020934E0130934F01409350015093510199
:1009F0008091700082608093700004C082E084CF98
:100A000084E082CF0F900F900F900F90DF91CF91E5
:100A10001F910F91FF90EF90DF90CF90BF90AF901C
:100A20009F908F907F906F905F904F903F90089530
:100A3000813039F018F08230D1F409C010926E0084
:100A4000089580916F008D7F80936F00089580914D
:100A500070008D7F8093700081E08093B000809162
:100A6000B100887F84608093B1001092B300089534
:100A7000CF93C82F809104018C1307C0E2ECF0E003
:100A800084919FEF9093040101C08FEF0E9418059D
:100A900060E08C2FCF910C94AC021F920F920FB696
:100AA0000F9211242F933F934F935F936F937F93F4
:100AB0008F939F93AF93BF93EF93FF9380914E01DA
:100AC00090914F01A0915001B0915101892B8A2B37
:100AD0008B2B51F190914B01E0914C01F0914D0124
:100AE00080818927808380914E0190914F01A09150
:100AF0005001B0915101181619061A061B06C4F4CC
:100B000080914E0190914F01A0915001B0915101FF
:100B10000197A109B10980934E0190934F01A093D1
:100B20005001B093510104C0809104010E94380526
:100B3000FF91EF91BF91AF919F918F917F916F91B5
:100B40005F914F913F912F910F900FBE0F901F908B
:100B50001895F8940C94510704D06894B1118DC085
:100B6000089570D088F09F5790F0B92F9927B7510A
:100B7000A0F0D1F0660F771F881F991F1AF0BA9561
:100B8000C9F712C0B13081F077D0B1E0089574C0D8
:100B9000672F782F8827B85F39F0B93FCCF3869557
:100BA00077956795B395D9F73EF4909580957095B4
:100BB00061957F4F8F4F9F4F0895E89409C097FB31
:100BC0003EF490958095709561957F4F8F4F9F4F24
:100BD0009923A9F0F92F96E9BB279395F695879568
:100BE00077956795B795F111F8CFFAF4BB0F11F42B
:100BF00060FF1BC06F5F7F4F8F4F9F4F16C08823D2
:100C000011F096E911C0772321F09EE8872F762F07
:100C100005C0662371F096E8862F70E060E02AF048
:100C20009A95660F771F881FDAF7880F9695879534
:100C300097F9089557FD9058440F551F59F05F3F9D
:100C400071F04795880F97FB991F61F09F3F79F0EE
:100C500087950895121613061406551FF2CF469570
:100C6000F1DF08C0161617061806991FF1CF8695F2
:100C70007105610508940895E894BB2766277727D6
:100C8000CB0197F908950BD078C069D028F06ED0C9
:100C900018F0952309F05AC05FC01124EECFCADFC7
:100CA000A0F3959FD1F3950F50E0551F629FF0017F
:100CB000729FBB27F00DB11D639FAA27F00DB11DD8
:100CC000AA1F649F6627B00DA11D661F829F222761
:100CD000B00DA11D621F739FB00DA11D621F839FE8
:100CE000A00D611D221F749F3327A00D611D231FBE
:100CF000849F600D211D822F762F6A2F11249F570C
:100D000050408AF0E1F088234AF0EE0FFF1FBB1F2E
:100D1000661F771F881F91505040A9F79E3F5105CD
:100D200070F014C0AACF5F3FECF3983EDCF38695D9
:100D300077956795B795F795E7959F5FC1F7FE2B78
:100D4000880F911D9695879597F9089597F99F6754
:100D500080E870E060E008959FEF80EC0895002443
:100D60000A941616170618060906089500240A9410
:100D700012161306140605060895092E0394000C96
:100D800011F4882352F0BB0F40F4BF2B11F460FF25
:100D900004C06F5F7F4F8F4F9F4F08950E942B07B6
:100DA000A59F900DB49F900DA49F800D911D1124BF
:100DB000089597FB072E16F4009407D077FD09D00D
:100DC0000E94370707FC05D03EF4909581959F4F10
:100DD0000895709561957F4F0895A1E21A2EAA1B80
:100DE000BB1BFD010DC0AA1FBB1FEE1FFF1FA217DB
:100DF000B307E407F50720F0A21BB30BE40BF50BD8
:100E0000661F771F881F991F1A9469F76095709560
:100E1000809590959B01AC01BD01CF010895052EF1
:100E200097FB16F4009407D057FD0DD00E94ED06F5
:100E300007FC09D07EF490958095709561957F4F61
:100E40008F4F9F4F089550954095309521953F4F76
:100E50004F4F5F4F0895A29FB001B39FC001A39F62
:100E600001D0B29F700D811D1124911D0895AA1B00
:100E7000BB1B51E107C0AA1FBB1FA617B70710F085
:100E8000A61BB70B881F991F5A95A9F780959095B7
:100E9000BC01CD010895EE0FFF1F0590F491E02DE8
:060EA0000994F894FFCF55
:100EA6000500FA00FF70034A019F01A4034B020BE1
:100EB600024A015D010B02DC0337017201DC030803
:100EC60000080004000400080008000400040008EC
:0A0ED6000008000400040002000000
:00000001FF
