:100000000C945C000C9479000C9479000C947900A9
:100010000C9479000C9479000C9479000C9479007C
:100020000C9479000C9479000C9479000C9479006C
:100030000C9479000C9479000C9479000C9479005C
:100040000C947C010C9479000C9479000C94790048
:100050000C9479000C9479000C9479000C9479003C
:100060000C9479000C947900000000070002010054
:100070000003040600000000000000000102040864
:100080001020408001020408102001020408102002
:10009000040404040404040402020202020203032E
:1000A0000303030300000000250028002B000000CC
:1000B0000000240027002A0011241FBECFEFD8E043
:1000C000DEBFCDBF11E0A0E0B1E0E4EDF6E002C09C
:1000D00005900D92A430B107D9F711E0A4E0B1E08A
:1000E00001C01D92A131B107E1F70E94AC020C944E
:1000F00000030C94000061E08DE00E943D0261E08D
:100100008DE00E9475021DC08EE00E94FA0090935F
:100110000701809306012091040130910501281701
:10012000390724F490930501809304012091000184
:10013000309101018217930724F490930101809379
:1001400000010E94C6016838734181059105E0F203
:1001500060E08DE00C947502AF92BF92CF92DF9277
:10016000EF92FF920F931F938EE00E94FA009093FC
:10017000070180930601E0900401F090050100273B
:10018000F7FC0095102F20910001309101014427C8
:1001900037FD4095542FBC01882777FD8095982F17
:1001A0001F921F921F92EFEFEF93A12CB12C6501CC
:1001B0000E94B9020F900F900F900F906F3F710542
:1001C00019F014F06FEF70E077FF02C060E070E0AC
:1001D000709307016093060171956195710989E03B
:1001E0001F910F91FF90EF90DF90CF90BF90AF9055
:1001F0000C941B018E3008F08E5087702091020104
:1002000040E4249F90011124822B80937C008091F4
:100210007A00806480937A0080917A0086FDFCCF1A
:100220002091780030917900932F80E0AC01422B2F
:100230009A01C90108951F93CF93DF93182FEB0103
:1002400061E00E943D02209711F460E004C0CF3FBE
:10025000D10539F461E0812FDF91CF911F910C948A
:100260007502E12FF0E0E859FF4FE491E330B9F077
:1002700028F4E13051F0E230B1F50CC0E63019F16C
:10028000E73049F1E43079F514C084B5806884BD65
:10029000C7BD2EC084B5806284BDC8BD29C0809111
:1002A0008000806880938000D0938900C09388008C
:1002B0001FC080918000806280938000D0938B006B
:1002C000C0938A0015C08091B00080688093B00010
:1002D000C093B3000DC08091B00080628093B000E5
:1002E000C093B40005C0C038D1050CF0B3CFADCF7A
:1002F000DF91CF911F9108951F920F920FB60F9229
:1003000011242F933F938F939F93AF93BF9380912B
:10031000080190910901A0910A01B0910B0130915F
:100320001001232F2D5F2D3720F40196A11DB11D43
:1003300005C0232F2A570296A11DB11D209310013D
:100340008093080190930901A0930A01B0930B01D7
:1003500080910C0190910D01A0910E01B0910F01BF
:100360000196A11DB11D80930C0190930D01A093E6
:100370000E01B0930F01BF91AF919F918F913F916B
:100380002F910F900FBE0F901F9018950F931F93F2
:100390008FB7F894009108011091090120910A018A
:1003A00030910B018FBFB801C9011F910F910895C2
:1003B000789484B5826084BD84B5816084BD85B540
:1003C000826085BD85B5816085BDEEE6F0E0808107
:1003D00081608083E1E8F0E0108280818260808328
:1003E000808181608083E0E8F0E0808181608083AB
:1003F000E1EBF0E0808184608083E0EBF0E08081DD
:1004000081608083EAE7F0E080818460808380817E
:100410008260808380818160808380818068808326
:100420001092C1000895833069F028F48130A1F062
:10043000823011F514C08630B1F08730C1F08430BD
:10044000D9F404C0809180008F7703C08091800030
:100450008F7D80938000089584B58F7702C084B526
:100460008F7D84BD08958091B0008F7703C0809107
:10047000B0008F7D8093B0000895CF93DF9390E01C
:10048000FC01E458FF4F4491FC01E057FF4F849179
:10049000882341F190E0880F991FFC01E255FF4F3E
:1004A00025913491D9018C559F4FFC0185919491F0
:1004B000C82FD92F9FB7F8948C91611106C0409531
:1004C00084238C938881842308C0623041F4242FD4
:1004D000209582238C938881842B888302C0842B6F
:1004E0008C939FBFDF91CF9108950F931F93CF936C
:1004F000DF931F92CDB7DEB7282F30E0F901E8591E
:10050000FF4F8491F901E458FF4F1491F901E0572E
:10051000FF4F04910023D1F0882321F069830E94CA
:1005200013026981E02FF0E0EE0FFF1FEC55FF4F43
:1005300085919491DC019FB7F8948C91611103C06F
:100540001095812301C0812B8C939FBF0F90DF9169
:10055000CF911F910F9108950E94D8010E947B00B6
:10056000C0E0D0E00E94AC002097E1F30E940000C0
:10057000F9CF4F925F926F927F92AF92BF92CF92DC
:10058000DF92EF92FF920F931F93CF93DF93CDB73C
:10059000DEB729013A01621B730B840B950B298985
:1005A0003A894B895C892A193B094C095D09298BD9
:1005B0003A8B4B8B5C8B9B01AC0169897A898B8967
:1005C0009C890E940E03E418F50806091709A80182
:1005D00097010E941E032A0D3B1D4C1D5D1DB90194
:1005E000CA01DF91CF911F910F91FF90EF90DF90A3
:1005F000CF90BF90AF907F906F905F904F90089595
:10060000F8940C9468030E943A03A59F900DB49F40
:10061000900DA49F800D911D11240895DB018F93EF
:100620009F930E940303BF91AF91A29F800D911DE4
:10063000A39F900DB29F900D11240895052E97FB56
:1006400016F4009407D057FD0DD00E94460307FC16
:1006500009D07EF490958095709561957F4F8F4F6E
:100660009F4F089550954095309521953F4F4F4F9E
:100670005F4F0895A29FB001B39FC001A39F01D017
:10068000B29F700D811D1124911D0895A1E21A2EB3
:10069000AA1BBB1BFD010DC0AA1FBB1FEE1FFF1F26
:1006A000A217B307E407F50720F0A21BB30BE40B76
:1006B000F50B661F771F881F991F1A9469F76095BD
:1006C0007095809590959B01AC01BD01CF01089577
:0406D000F894FFCFCC
:0406D400FF0301001F
:00000001FF
