:100000000C9462000C948A000C948A000C948A0070
:100010000C948A000C948A000C948A000C948A0038
:100020000C948A000C948A000C948A000C948A0028
:100030000C948A000C948A000C948A000C948A0018
:100040000C944D010C948A000C9442030C9485038B
:100050000C948A000C948A000C948A000C948A00F8
:100060000C948A000C948A00000000070002010032
:100070000003040600000000000000000102040864
:100080001020408001020408102001020408102002
:10009000040404040404040402020202020203032E
:1000A00003030303000000002300260029000000D2
:1000B0000000250028002B0000000000240027007D
:1000C0002A00410411241FBECFEFD8E0DEBFCDBF10
:1000D00011E0A0E0B1E0E6E1FCE002C005900D9285
:1000E000A633B107D9F711E0A6E3B1E001C01D9234
:1000F000AF3EB107E1F710E0C4ECD0E004C02297B6
:10010000FE010E940506C23CD107C9F70E94970470
:100110000C94DE050C940000CF93C8E061E08C2FB6
:100120000E940E02CF5FCC30C9F740E855E260E094
:1001300070E085E491E0CF910C94C003CF92DF9200
:10014000EF92FF920F931F93CF93DF93CDB7DEB75C
:100150002C970FB6F894DEBF0FBECDBFFE013196CF
:100160008CE0DF011D928A95E9F782E00E947D0212
:100170008C0180913A0190913B010817190729F0F1
:100180000E9497016B017C0103C0C12CD12C760128
:100190000E9497016C197D098E099F0963337105CF
:1001A0008105910508F466C080913801909139016C
:1001B0000817190709F45EC00130110549F4809150
:1001C0003601909137010196909337018093360163
:1001D0008091360190913701FE01339607C09C0152
:1001E0002170332721933193959587951816190619
:1001F000B4F360E071E085E491E00E94E204609174
:100200003601709137014AE050E085E491E00E94A8
:10021000C4056BE171E085E491E00E94E2047E0197
:10022000BBE0EB0EF11C6E01E3E0CE0ED11CD7015A
:100230007E916E917D014AE050E085E491E00E945C
:10024000BC05EC14FD0499F76AE171E085E491E0E6
:100250000E9401056B8188E00E9446026D8189E061
:100260000E9446026F818AE00E94460269858BE007
:100270000E94460210933901009338012C960FB664
:10028000F894DEBF0FBECDBFDF91CF911F910F91CC
:10029000FF90EF90DF90CF9008951F920F920FB6CE
:1002A0000F9211242F933F938F939F93AF93BF93FC
:1002B00080913C0190913D01A0913E01B0913F01A0
:1002C00030914401232F2D5F2D3720F40196A11D7D
:1002D000B11D05C0232F2A570296A11DB11D2093E1
:1002E000440180933C0190933D01A0933E01B09363
:1002F0003F018091400190914101A0914201B09154
:1003000043010196A11DB11D8093400190934101CD
:10031000A0934201B0934301BF91AF919F918F9100
:100320003F912F910F900FBE0F901F9018950F9334
:100330001F938FB7F89400913C0110913D012091DB
:100340003E0130913F018FBFB801C9011F910F914C
:100350000895789484B5826084BD84B5816084BD3D
:1003600085B5826085BD85B5816085BDEEE6F0E02E
:10037000808181608083E1E8F0E01082808182608A
:100380008083808181608083E0E8F0E0808181600B
:100390008083E1EBF0E0808184608083E0EBF0E03B
:1003A000808181608083EAE7F0E0808184608083DF
:1003B0008081826080838081816080838081806889
:1003C00080831092C1000895833069F028F4813051
:1003D000A1F0823011F514C08630B1F08730C1F041
:1003E0008430D9F404C0809180008F7703C080915D
:1003F00080008F7D80938000089584B58F7702C040
:1004000084B58F7D84BD08958091B0008F7703C03F
:100410008091B0008F7D8093B0000895CF93DF93DB
:1004200090E0FC01E458FF4F4491FC01E057FF4F7E
:100430008491882341F190E0880F991FFC01E854D2
:10044000FF4F25913491D90182559F4FFC01859131
:100450009491C82FD92F9FB7F8948C91611106C041
:10046000409584238C938881842308C0623041F4B2
:10047000242F209582238C938881842B888302C02B
:10048000842B8C939FBFDF91CF9108950F931F937F
:10049000CF93DF931F92CDB7DEB7282F30E0F9015D
:1004A000E859FF4F8491F901E458FF4F1491F90185
:1004B000E057FF4F04910023D1F0882321F0698396
:1004C0000E94E4016981E02FF0E0EE0FFF1FE2558A
:1004D000FF4F85919491DC019FB7F8948C91611145
:1004E00003C01095812301C0812B8C939FBF0F9077
:1004F000DF91CF911F910F910895CF93DF93282F14
:1005000030E0F901E859FF4F8491F901E458FF4FB9
:10051000D491F901E057FF4FC491CC2389F08111A8
:100520000E94E401EC2FF0E0EE0FFF1FEC55FF4FAF
:1005300085919491DC018C918D2321E030E011F4C0
:1005400020E030E0C901DF91CF910895FC0184855E
:100550009585FC01E05CFF4F20813181FC01EE5B61
:10056000FF4F80819181281B390B2F733327C901DD
:100570000895FC0184859585FC01E05CFF4F408176
:100580005181FC01EE5BFF4F2081318142175307FF
:1005900041F00190F081E02DE80FF91F208130E05B
:1005A00002C02FEF3FEFC9010895FC0184859585B6
:1005B000FC01E05CFF4F40815181FC01EE5BFF4F8D
:1005C000208131814217530781F0A081B181A80FAA
:1005D000B91F8C91208131812F5F3F4F2F733327BB
:1005E00031832083282F30E002C02FEF3FEFC90175
:1005F0000895FC0181A1882329F0A489B5898C91F3
:1006000086FFFBCF11A20895CF93DF93FC012685CF
:100610003785D901A05CBF4F8D919C9111970196B0
:100620008F739927E901CE5BDF4F48815981841789
:100630009507D9F30D90BC91A02DA20FB31F6C9319
:10064000A685B785A05CBF4F11969C938E93A68913
:10065000B7892C9181E090E0078C02C0880F991F28
:100660000A94E2F7282B2C9381E081A30488F58972
:10067000E02D80818064808381E090E0DF91CF91E4
:10068000089508951F920F920FB60F9211242F9381
:100690003F934F938F939F93EF93FF938091C0006D
:1006A00082FD1CC04091C6008091EB019091EC014D
:1006B00001968F7399272091ED013091EE018217F9
:1006C000930771F0E091EB01F091EC01E555FE4FDD
:1006D00040839093EC018093EB0102C08091C600AF
:1006E000FF91EF919F918F914F913F912F910F909B
:1006F0000FBE0F901F90189585E491E00E94A6020E
:10070000892B11F00C94410308951F920F920FB69C
:100710000F9211242F933F938F939F93EF93FF9307
:100720002091A7013091A8018091A9019091AA017F
:100730002817390731F48091C1008F7D8093C10063
:1007400014C0E091A901F091AA01E959FE4F20815E
:100750008091A9019091AA0101968F739927909396
:10076000AA018093A9012093C600FF91EF919F9168
:100770008F913F912F910F900FBE0F901F90189562
:10078000CF92DF92EF92FF92CF93DF93EC016A0159
:100790007B01411581EE580761057105F9F0EC897F
:1007A000FD8981E090E008A002C0880F991F0A949B
:1007B000E2F7808360E079E08DE390E0A7019601A5
:1007C0000E94E1052150310941095109569547958B
:1007D00037952795211580E1380798F0EC89FD8938
:1007E000108260E874E88EE190E0A70196010E9413
:1007F000E105215031094109510956954795379531
:100800002795E889F9893083EA89FB89208319A231
:10081000EE89FF89408181E090E09C010C8C02C050
:10082000220F331F0A94E2F7422B4083EE89FF899F
:1008300040819C010D8C02C0220F331F0A94E2F705
:10084000422B4083EE89FF8940819C010E8C02C0BF
:10085000220F331F0A94E2F7422B4083EE89FF896F
:1008600020810F8C02C0880F991F0A94E2F78095AF
:1008700082238083DF91CF91FF90EF90DF90CF9024
:100880000895109248011092470188EE93E0A0E08D
:10089000B0E08093490190934A01A0934B01B0933B
:1008A0004C0189E291E090934601809345018BEAE7
:1008B00091E0909352018093510187E691E09093EB
:1008C00054018093530185EC90E0909356018093FE
:1008D000550184EC90E0909358018093570180EC8F
:1008E00090E090935A018093590181EC90E09093AD
:1008F0005C0180935B0182EC90E090935E018093B9
:100900005D0186EC90E09093600180935F0184E04C
:100910008093610183E08093620187E080936301AB
:1009200085E08093640181E08093650108950E94D1
:10093000A9010E948C00CCE7D3E00E949E00209782
:10094000E1F30E947C03F9CFCF92DF92EF92FF9206
:100950000F931F93CF93DF936C01EB017A01E60EA7
:10096000F71E00E010E00BC06991D601ED91FC91FB
:100970000190F081E02DC6010995080F191FCE15D1
:10098000DF0591F7C801DF91CF911F910F91FF9083
:10099000EF90DF90CF9008956115710581F0DB0134
:1009A0000D900020E9F7AD0141505109461B570B4E
:1009B000DC01ED91FC910280F381E02D099480E04F
:1009C00090E008950C94CC04DC01ED91FC91019031
:1009D000F081E02D09940F931F93CF93DF93EC01E7
:1009E0006DE00E94E4048C016AE0CE010E94E40400
:1009F0009C01200F311FC901DF91CF911F910F91F1
:100A000008950F931F93CF93DF93EC010E94CC04C2
:100A10008C01CE010E94EB049801280F391FC901F7
:100A2000DF91CF911F910F9108954F925F926F9236
:100A30007F929F92AF92BF92CF92DF92EF92FF92FE
:100A40000F931F93CF93DF93CDB7DEB7A1970FB668
:100A5000F894DEBF0FBECDBF5C016A017B01922E10
:100A600019A281E0821710F08AE0982E8E010F5DA6
:100A70001F4F492C512C612C712CC701B601A301C9
:100A800092010E94E1058C2D929E80191124015043
:100A900011098A3014F4805D01C0895CF8018083FB
:100AA00069017A01C114D104E104F10431F7B801FC
:100AB000C5010E94CC04A1960FB6F894DEBF0FBE0C
:100AC000CDBFDF91CF911F910F91FF90EF90DF90FD
:100AD000CF90BF90AF909F907F906F905F904F901E
:100AE0000895CF92DF92EF92FF920F931F93CF93CF
:100AF000DF93EC016A017B012115310579F4E8816E
:100B0000F9810190F081E02D642FDF91CF911F9149
:100B10000F91FF90EF90DF90CF9009942A3031052C
:100B200019F477FD0EC02AE0B701A601CE01DF91CE
:100B3000CF911F910F91FF90EF90DF90CF900C9489
:100B400015056DE20E94E4048C0144275527BA0183
:100B50004C195D096E097F092AE0CE010E94150536
:100B6000080F191FC801DF91CF911F910F91FF90BE
:100B7000EF90DF90CF9008959A01AB01662757FD63
:100B80006095762F0C9471050F931F93CF93DF938D
:100B9000EC019A01AB01662757FD6095762F0E9404
:100BA00071058C01CE010E94EB049801280F391FBA
:100BB000C901DF91CF911F910F910895F8940C9482
:100BC0000906A1E21A2EAA1BBB1BFD010DC0AA1F1C
:100BD000BB1FEE1FFF1FA217B307E407F50720F0A6
:100BE000A21BB30BE40BF50B661F771F881F991F21
:100BF0001A9469F760957095809590959B01AC016A
:100C0000BD01CF010895EE0FFF1F0590F491E02D77
:060C10000994F894FFCFE7
:100C16006E756D626572206F6620627574746F6E94
:100C2600207075736865733A20200042696E6172A0
:100C3600793A202000000000000403A404A602D58F
:060C460002B902F90200F0
:00000001FF
