:100000000C9462000C948A000C948A000C948A0070
:100010000C948A000C948A000C948A000C948A0038
:100020000C948A000C948A000C948A000C948A0028
:100030000C948A000C948A000C948A000C948A0018
:100040000C94DA040C948A000C9446020C948902F5
:100050000C948A000C948A000C948A000C948A00F8
:100060000C948A000C948A00000000070002010032
:100070000003040600000000000000000102040864
:100080001020408001020408102001020408102002
:10009000040404040404040402020202020203032E
:1000A00003030303000000002300260029000000D2
:1000B0000000250028002B0000000000240027007D
:1000C0002A00450311241FBECFEFD8E0DEBFCDBF0D
:1000D00011E0A0E0B1E0E8E1FBE002C005900D9284
:1000E000A233B107D9F711E0A2E3B1E001C01D923C
:1000F000AB3EB107E1F710E0C4ECD0E004C02297BA
:10010000FE010E948605C23CD107C9F70E949B03ED
:100110000C945F050C94000060E082E00E941201E4
:1001200061E08DE00E94120140E855E260E070E07D
:1001300088E391E00C94C40282E00E9481019093D4
:1001400035018093340120913201309133018217BF
:10015000930741F1019701F58091360190913701A4
:100160000196909337018093360160E071E088E357
:1001700091E00E94050463E071E088E391E00E9451
:10018000E60360913601709137014AE050E088E360
:1001900091E00E94C00406C06EE171E088E391E046
:1001A0000E940504809134019091350190933301B0
:1001B00080933201809136019091370183709927A5
:1001C000892B11F461E001C060E08DE00C944A01DC
:1001D000833069F028F48130A1F0823011F514C029
:1001E0008630B1F08730C1F08430D9F404C08091FA
:1001F00080008F7703C0809180008F7D8093800086
:10020000089584B58F7702C084B58F7D84BD08952D
:100210008091B0008F7703C08091B0008F7D809374
:10022000B0000895CF93DF9390E0FC01E458FF4FB6
:100230004491FC01E057FF4F8491882341F190E005
:10024000880F991FFC01E854FF4F25913491D90183
:1002500082559F4FFC0185919491C82FD92F9FB74C
:10026000F8948C91611106C0409584238C93888109
:10027000842308C0623041F4242F209582238C937C
:100280008881842B888302C0842B8C939FBFDF914D
:10029000CF9108950F931F93CF93DF931F92CDB704
:1002A000DEB7282F30E0F901E859FF4F8491F901BA
:1002B000E458FF4F1491F901E057FF4F04910023D8
:1002C000D1F0882321F069830E94E8006981E02F42
:1002D000F0E0EE0FFF1FE255FF4F85919491DC0196
:1002E0009FB7F8948C91611103C01095812301C0D0
:1002F000812B8C939FBF0F90DF91CF911F910F9116
:100300000895CF93DF93282F30E0F901E859FF4F8C
:100310008491F901E458FF4FD491F901E057FF4F60
:10032000C491CC2389F081110E94E800EC2FF0E009
:10033000EE0FFF1FEC55FF4F85919491DC018C91DE
:100340008D2321E030E011F420E030E0C901DF919D
:10035000CF910895FC0184859585FC01E05CFF4FF9
:1003600020813181FC01EE5BFF4F80819181281B50
:10037000390B2F733327C9010895FC0184859585B6
:10038000FC01E05CFF4F40815181FC01EE5BFF4FBF
:10039000208131814217530741F00190F081E02D17
:1003A000E80FF91F208130E002C02FEF3FEFC901B5
:1003B0000895FC0184859585FC01E05CFF4F408138
:1003C0005181FC01EE5BFF4F2081318142175307C1
:1003D00081F0A081B181A80FB91F8C91208131815A
:1003E0002F5F3F4F2F73332731832083282F30E037
:1003F00002C02FEF3FEFC9010895FC0181A18823BE
:1004000029F0A489B5898C9186FFFBCF11A20895AC
:10041000CF93DF93FC0126853785D901A05CBF4FC0
:100420008D919C91119701968F739927E901CE5B6D
:10043000DF4F4881598184179507D9F30D90BC91FE
:10044000A02DA20FB31F6C93A685B785A05CBF4FEC
:1004500011969C938E93A689B7892C9181E090E0A8
:10046000078C02C0880F991F0A94E2F7282B2C935F
:1004700081E081A30488F589E02D808180648083F8
:1004800081E090E0DF91CF91089508951F920F923F
:100490000FB60F9211242F933F934F938F939F93F7
:1004A000EF93FF938091C00082FD1CC04091C60075
:1004B0008091DE019091DF0101968F739927209141
:1004C000E0013091E1018217930771F0E091DE01C4
:1004D000F091DF01E256FE4F40839093DF0180935D
:1004E000DE0102C08091C600FF91EF919F918F9134
:1004F0004F913F912F910F900FBE0F901F90189525
:1005000088E391E00E94AA01892B11F00C94450226
:1005100008951F920F920FB60F9211242F933F93BD
:100520008F939F93EF93FF9320919A0130919B01BA
:1005300080919C0190919D012817390731F4809199
:10054000C1008F7D8093C10014C0E0919C01F091A7
:100550009D01E65AFE4F208180919C0190919D0162
:1005600001968F73992790939D0180939C0120930E
:10057000C600FF91EF919F918F913F912F910F9026
:100580000FBE0F901F901895CF92DF92EF92FF92BF
:10059000CF93DF93EC016A017B01411581EE58078F
:1005A00061057105F9F0EC89FD8981E090E008A012
:1005B00002C0880F991F0A94E2F7808360E079E017
:1005C0008DE390E0A70196010E9462052150310958
:1005D000410951095695479537952795211580E191
:1005E000380798F0EC89FD89108260E874E88EE1A4
:1005F00090E0A70196010E9462052150310941094E
:1006000051095695479537952795E889F98930839B
:10061000EA89FB89208319A2EE89FF89408181E064
:1006200090E09C010C8C02C0220F331F0A94E2F769
:10063000422B4083EE89FF8940819C010D8C02C0D2
:10064000220F331F0A94E2F7422B4083EE89FF8981
:1006500040819C010E8C02C0220F331F0A94E2F7E6
:10066000422B4083EE89FF8920810F8C02C0880FC6
:10067000991F0A94E2F7809582238083DF91CF91BE
:10068000FF90EF90DF90CF90089510923B01109271
:100690003A0188EE93E0A0E0B0E080933C019093B3
:1006A0003D01A0933E01B0933F0186E291E090931B
:1006B0003901809338018EE991E090934501809350
:1006C00044018AE591E0909347018093460185ECCF
:1006D00090E0909349018093480184EC90E09093DE
:1006E0004B0180934A0180EC90E090934D01809300
:1006F0004C0181EC90E090934F0180934E0182EC8D
:1007000090E0909351018093500186EC90E090939B
:1007100053018093520184E08093540183E08093DD
:10072000550187E08093560185E08093570181E071
:100730008093580108950E9424050E948C00C0E80F
:10074000D2E00E949C002097E1F30E948002F9CF42
:10075000CF92DF92EF92FF920F931F93CF93DF938D
:100760006C01EB017A01E60EF71E00E010E00BC011
:100770006991D601ED91FC910190F081E02DC601C7
:100780000995080F191FCE15DF0591F7C801DF91F4
:10079000CF911F910F91FF90EF90DF90CF90089530
:1007A0006115710581F0DB010D900020E9F7AD01C5
:1007B00041505109461B570BDC01ED91FC91028021
:1007C000F381E02D099480E090E008950C94D0032B
:1007D000DC01ED91FC910190F081E02D09940F93E3
:1007E0001F93CF93DF93EC016DE00E94E8038C012F
:1007F0006AE0CE010E94E8039C01200F311FC9016D
:10080000DF91CF911F910F9108950F931F93CF9375
:10081000DF93EC010E94D0038C01CE010E94EF0314
:100820009801280F391FC901DF91CF911F910F91B6
:1008300008954F925F926F927F929F92AF92BF9274
:10084000CF92DF92EF92FF920F931F93CF93DF939C
:10085000CDB7DEB7A1970FB6F894DEBF0FBECDBF00
:100860005C016A017B01922E19A281E0821710F0CF
:100870008AE0982E8E010F5D1F4F492C512C612C60
:10088000712CC701B601A30192010E9462058C2D53
:10089000929E80191124015011098A3014F4805D50
:1008A00001C0895CF801808369017A01C114D10417
:1008B000E104F10431F7B801C5010E94D003A1960B
:1008C0000FB6F894DEBF0FBECDBFDF91CF911F9161
:1008D0000F91FF90EF90DF90CF90BF90AF909F90DF
:1008E0007F906F905F904F900895CF92DF92EF923C
:1008F000FF920F931F93CF93DF93EC016A017B016B
:100900002115310579F4E881F9810190F081E02D1C
:10091000642FDF91CF911F910F91FF90EF90DF90A7
:10092000CF9009942A30310519F477FD0EC02AE0E2
:10093000B701A601CE01DF91CF911F910F91FF90DA
:10094000EF90DF90CF900C9419046DE20E94E803C1
:100950008C0144275527BA014C195D096E097F099E
:100960002AE0CE010E941904080F191FC801DF9167
:10097000CF911F910F91FF90EF90DF90CF9008954E
:100980000F931F93CF93DF93EC019A01AB0166277E
:1009900057FD6095762F0E9475048C01CE010E9450
:1009A000EF039801280F391FC901DF91CF911F91E3
:1009B0000F9108951F920F920FB60F9211242F934B
:1009C0003F938F939F93AF93BF938091E201909158
:1009D000E301A091E401B091E5013091EA01232FF8
:1009E0002D5F2D3720F40196A11DB11D05C0232FC9
:1009F0002A570296A11DB11D2093EA018093E201BE
:100A00009093E301A093E401B093E5018091E601A6
:100A10009091E701A091E801B091E9010196A11D33
:100A2000B11D8093E6019093E701A093E801B09394
:100A3000E901BF91AF919F918F913F912F910F90BD
:100A40000FBE0F901F901895789484B5826084BD76
:100A500084B5816084BD85B5826085BD85B58160C2
:100A600085BDEEE6F0E0808181608083E1E8F0E022
:100A70001082808182608083808181608083E0E851
:100A8000F0E0808181608083E1EBF0E08081846030
:100A90008083E0EBF0E0808181608083EAE7F0E032
:100AA0008081846080838081826080838081816096
:100AB00080838081806880831092C1000895F894BB
:100AC0000C948A05A1E21A2EAA1BBB1BFD010DC0C6
:100AD000AA1FBB1FEE1FFF1FA217B307E407F507EE
:100AE00020F0A21BB30BE40BF50B661F771F881FCA
:100AF000991F1A9469F760957095809590959B0160
:100B0000AC01BD01CF010895EE0FFF1F0590F491D8
:080B1000E02D0994F894FFCFD9
:100B18006F6E006E756D626572206F662062757407
:100B2800746F6E207075736865733A2020006F6665
:100B38006600000000000802A803AA01D901BD014F
:020B4800FD01AD
:00000001FF
