:100000000C9435000C945D000C945D000C945D0024
:100010000C945D000C945D000C945D000C945D00EC
:100020000C945D000C945D000C945D000C945D00DC
:100030000C945D000C945D000C945D000C945D00CC
:100040000C94AB040C945D000C943C010C947F0167
:100050000C945D000C945D000C945D000C945D00AC
:100060000C945D000C945D003B0211241FBECFEF89
:10007000D8E0DEBFCDBF11E0A0E0B1E0E8EFFEE0E8
:1000800002C005900D92A032B107D9F711E0A0E2AD
:10009000B1E001C01D92A33DB107E1F710E0CAE64F
:1000A000D0E004C02297FE010E947607C836D1072F
:1000B000C9F70E9491020C9430050C94000040E8AE
:1000C00055E260E070E080E291E00C94BA018EE0CD
:1000D0000E947F00BC01882777FD8095982F0E94A1
:1000E00037062AE038E240EA5BE30E94EB06AB0108
:1000F000BC0122E030E080E291E00C9497048E3065
:1001000008F08E5087702091000140E4249F9001F8
:100110001124822B80937C0080917A0080648093EC
:100120007A0080917A0086FDFCCF20917800309192
:100130007900932F80E0AC01422B9A01C901089508
:10014000FC0184859585FC01E05CFF4F20813181B5
:10015000FC01EE5BFF4F80819181281B390B2F73CF
:100160003327C9010895FC0184859585FC01E05C75
:10017000FF4F40815181FC01EE5BFF4F20813181B7
:100180004217530741F00190F081E02DE80FF91F6D
:10019000208130E002C02FEF3FEFC9010895FC013C
:1001A00084859585FC01E05CFF4F40815181FC0115
:1001B000EE5BFF4F208131814217530781F0A08110
:1001C000B181A80FB91F8C91208131812F5F3F4FE2
:1001D0002F73332731832083282F30E002C02FEF85
:1001E0003FEFC9010895FC0181A1882329F0A4896A
:1001F000B5898C9186FFFBCF11A20895CF93DF9331
:10020000FC0126853785D901A05CBF4F8D919C915B
:10021000119701968F739927E901CE5BDF4F4881D3
:10022000598184179507D9F30D90BC91A02DA20F89
:10023000B31F6C93A685B785A05CBF4F11969C93A6
:100240008E93A689B7892C9181E090E0078C02C03B
:10025000880F991F0A94E2F7282B2C9381E081A341
:100260000488F589E02D80818064808381E090E0BE
:10027000DF91CF91089508951F920F920FB60F92BC
:1002800011242F933F934F938F939F93EF93FF935B
:100290008091C00082FD1CC04091C6008091C601C3
:1002A0009091C70101968F7399272091C8013091D1
:1002B000C9018217930771F0E091C601F091C7015F
:1002C000EA57FE4F40839093C7018093C60102C056
:1002D0008091C600FF91EF919F918F914F913F9137
:1002E0002F910F900FBE0F901F90189580E291E014
:1002F0000E94A000892B11F00C943B0108951F92DD
:100300000F920FB60F9211242F933F938F939F93C9
:10031000EF93FF93209182013091830180918401BA
:10032000909185012817390731F48091C1008F7DA4
:100330008093C10014C0E0918401F0918501EE5BCF
:10034000FE4F2081809184019091850101968F73E9
:10035000992790938501809384012093C600FF9193
:10036000EF919F918F913F912F910F900FBE0F9022
:100370001F901895CF92DF92EF92FF92CF93DF9369
:10038000EC016A017B01411581EE58076105710599
:10039000F9F0EC89FD8981E090E008A002C0880FA7
:1003A000991F0A94E2F7808360E079E08DE390E0A2
:1003B000A70196010E9452072150310941095109B4
:1003C0005695479537952795211580E1380798F080
:1003D000EC89FD89108260E874E88EE190E0A70165
:1003E00096010E9452072150310941095109569541
:1003F000479537952795E889F9893083EA89FB89FC
:10040000208319A2EE89FF89408181E090E09C0160
:100410000C8C02C0220F331F0A94E2F7422B408358
:10042000EE89FF8940819C010D8C02C0220F331F91
:100430000A94E2F7422B4083EE89FF8940819C01B8
:100440000E8C02C0220F331F0A94E2F7422B408326
:10045000EE89FF8920810F8C02C0880F991F0A94B2
:10046000E2F7809582238083DF91CF91FF90EF9018
:10047000DF90CF900895109223011092220188EE10
:1004800093E0A0E0B0E08093240190932501A09335
:100490002601B093270185E091E09093210180939C
:1004A000200186E891E090932D0180932C0182E455
:1004B00091E090932F0180932E0185EC90E0909332
:1004C00031018093300184EC90E09093330180936C
:1004D000320180EC90E0909335018093340181ECFF
:1004E00090E0909337018093360182EC90E09093F6
:1004F00039018093380186EC90E090933B01809322
:100500003A0184E080933C0183E080933D0187E0E1
:1005100080933E0185E080933F0181E0809340011C
:1005200008950E94F5040E945F00C6E7D1E00E9492
:1005300067002097E1F30E947601F9CFCF92DF9216
:10054000EF92FF920F931F93CF93DF936C01EB0118
:100550007A01E60EF71E00E010E00BC06991D601AB
:10056000ED91FC910190F081E02DC6010995080FF5
:10057000191FCE15DF0591F7C801DF91CF911F91AB
:100580000F91FF90EF90DF90CF9008956115710566
:1005900081F0DB010D900020E9F7AD0141505109D8
:1005A000461B570BDC01ED91FC910280F381E02D9D
:1005B000099480E090E00895DC01ED91FC910190B8
:1005C000F081E02D09940F931F93CF93DF93EC01FB
:1005D0006DE00E94DC028C016AE0CE010E94DC0228
:1005E0009C01200F311FC901DF91CF911F910F9105
:1005F00008954F925F926F927F929F92AF92BF92B7
:10060000CF92DF92EF92FF920F931F93CF93DF93DE
:10061000CDB7DEB7A1970FB6F894DEBF0FBECDBF42
:100620005C016A017B01922E19A281E0821710F011
:100630008AE0982E8E010F5D1F4F492C512C612CA2
:10064000712CC701B601A30192010E9452078C2DA3
:10065000929E80191124015011098A3014F4805D92
:1006600001C0895CF801808369017A01C114D10459
:10067000E104F10431F7B801C5010E94C602A19658
:100680000FB6F894DEBF0FBECDBFDF91CF911F91A3
:100690000F91FF90EF90DF90CF90BF90AF909F9021
:1006A0007F906F905F904F900895CF92DF92EF927E
:1006B000FF920F931F93CF93DF93EC016A017B01AD
:1006C0002115310579F4E881F9810190F081E02D5F
:1006D000642FDF91CF911F910F91FF90EF90DF90EA
:1006E000CF9009942A30310519F477FD0EC02AE025
:1006F000B701A601CE01DF91CF911F910F91FF901D
:10070000EF90DF90CF900C94F9026DE20E94DC0232
:100710008C0144275527BA014C195D096E097F09E0
:100720002AE0CE010E94F902080F191FC801DF91CB
:10073000CF911F910F91FF90EF90DF90CF90089590
:100740007F928F929F92AF92BF92CF92DF92EF9261
:10075000FF920F931F93CF93DF93EC016A017B010C
:10076000122F9A01AB01C701B6010E944E078823E0
:1007700019F061E171E032C046015701E894B7F821
:100780002FEF3FEF4FE75FE7C501B4010E944E072F
:1007900081110DC02FEF3FEF4FE75FE7C501B401B7
:1007A0000E94980518161CF465E171E017C02FEF40
:1007B0003FEF4FE75FE4C701B6010E94E706181656
:1007C0000CF40AC02FEF3FEF4FE75FECC701B60113
:1007D0000E94980587FF12C069E171E0CE01DF91A8
:1007E000CF911F910F91FF90EF90DF90CF90BF902E
:1007F000AF909F908F907F900C94C60220E030E0E5
:10080000A901C701B6010E94980587FF0AC06DE2E1
:10081000CE010E94DC025C01F7FAF094F7F8F09444
:1008200002C0A12CB12C00E060E070E080E09FE30A
:1008300007C020E030E040E251E40E949C050F5FD9
:100840000113F7CF262F372F482F592FC701B60195
:100850000E943405762E872E982EC92E0E940906F6
:10086000D62EE72EF82E092F0E9435069B01AC01EB
:10087000672D782D892D9C2D0E943305C62E972E2D
:10088000882E792E2AE04D2D5E2D6F2D702FCE01F2
:100890000E94F9027C01EA0CFB1C1123B9F16DE105
:1008A00071E0CE010E94C602E80EF91E2FC020E0C2
:1008B00030E040E251E46C2D792D882D972D0E9477
:1008C000EB06762E072F6C019D2D0E9404064B012E
:1008D000AA2497FCA094BA2C2AE030E0B501A40128
:1008E000CE010E945503E80EF91EC501B4010E9415
:1008F00037069B01AC01672D702F8C2D9D2D0E941A
:100900003305C62E972E882E792E11501111CFCF78
:10091000C701DF91CF911F910F91FF90EF90DF9072
:10092000CF90BF90AF909F908F907F9008950F933E
:100930001F93CF93DF93EC010E94A0038C01CE01A3
:100940000E94E3029801280F391FC901DF91CF915E
:100950001F910F9108951F920F920FB60F921124BD
:100960002F933F938F939F93AF93BF938091CA012F
:100970009091CB01A091CC01B091CD013091D201E9
:10098000232F2D5F2D3720F40196A11DB11D05C029
:10099000232F2A570296A11DB11D2093D2018093C7
:1009A000CA019093CB01A093CC01B093CD0180916B
:1009B000CE019091CF01A091D001B091D1010196CB
:1009C000A11DB11D8093CE019093CF01A093D001C2
:1009D000B093D101BF91AF919F918F913F912F9192
:1009E0000F900FBE0F901F901895789484B5826079
:1009F00084BD84B5816084BD85B5826085BD85B5C3
:100A0000816085BDEEE6F0E0808181608083E1E871
:100A1000F0E01082808182608083808181608083A9
:100A2000E0E8F0E0808181608083E1EBF0E08081AC
:100A300084608083E0EBF0E0808181608083EAE77E
:100A4000F0E0808184608083808182608083808107
:100A5000816080838081806880831092C1000895C6
:100A6000F8940C947A075058BB27AA270ED075C16A
:100A700066D130F06BD120F031F49F3F11F41EF4B9
:100A80005BC10EF4E095E7FB51C1E92F77D180F30C
:100A9000BA17620773078407950718F071F49EF57B
:100AA0008FC10EF4E0950B2EBA2FA02D0B01B901CA
:100AB00090010C01CA01A0011124FF27591B99F0D4
:100AC000593F50F4503E68F11A16F040A22F232FE0
:100AD000342F4427585FF3CF469537952795A79530
:100AE000F0405395C9F77EF41F16BA0B620B730BD7
:100AF000840BBAF09150A1F0FF0FBB1F661F771F48
:100B0000881FC2F70EC0BA0F621F731F841F48F4FC
:100B1000879577956795B795F7959E3F08F0B3CF82
:100B20009395880F08F09927EE0F9795879508956C
:100B3000D9D008F481E008950CD00FC107D140F05E
:100B4000FED030F021F45F3F19F0F0C0511139C1EF
:100B5000F3C014D198F39923C9F35523B1F3951B2E
:100B6000550BBB27AA2762177307840738F09F5FCE
:100B70005F4F220F331F441FAA1FA9F333D00E2E3D
:100B80003AF0E0E830D091505040E695001CCAF7AA
:100B900029D0FE2F27D0660F771F881FBB1F26176F
:100BA00037074807AB07B0E809F0BB0B802DBF0142
:100BB000FF2793585F4F2AF09E3F510568F0B6C05B
:100BC00000C15F3FECF3983EDCF38695779567951F
:100BD000B795F7959F5FC9F7880F911D96958795F3
:100BE00097F90895E1E0660F771F881FBB1F621712
:100BF00073078407BA0720F0621B730B840BBA0BD0
:100C0000EE1F88F7E095089504D06894B111D9C01B
:100C10000895BCD088F09F5790F0B92F9927B7510D
:100C2000A0F0D1F0660F771F881F991F1AF0BA95B0
:100C3000C9F712C0B13081F0C3D0B1E00895C0C08F
:100C4000672F782F8827B85F39F0B93FCCF38695A6
:100C500077956795B395D9F73EF490958095709503
:100C600061957F4F8F4F9F4F0895E89409C097FB80
:100C70003EF490958095709561957F4F8F4F9F4F73
:100C80009923A9F0F92F96E9BB279395F6958795B7
:100C900077956795B795F111F8CFFAF4BB0F11F47A
:100CA00060FF1BC06F5F7F4F8F4F9F4F16C0882321
:100CB00011F096E911C0772321F09EE8872F762F57
:100CC00005C0662371F096E8862F70E060E02AF098
:100CD0009A95660F771F881FDAF7880F9695879584
:100CE00097F90895990F0008550FAA0BE0E8FEEF59
:100CF00016161706E807F907C0F012161306E407E0
:100D0000F50798F0621B730B840B950B39F40A26D8
:100D100061F0232B242B252B21F408950A2609F4B6
:100D2000A140A6958FEF811D811D089597F99F67BA
:100D300080E870E060E008959FEF80EC0895002463
:100D40000A941616170618060906089500240A9430
:100D500012161306140605060895092E0394000CB6
:100D600011F4882352F0BB0F40F4BF2B11F460FF45
:100D700004C06F5F7F4F8F4F9F4F089557FD90586E
:100D8000440F551F59F05F3F71F04795880F97FB4F
:100D9000991F61F09F3F79F0879508951216130609
:100DA0001406551FF2CF4695F1DF08C01616170638
:100DB0001806991FF1CF869571056105089408956D
:100DC000E894BB2766277727CB0197F908958ADF38
:100DD00008F48FEF08950BD0C0CFB1DF28F0B6DF55
:100DE00018F0952309F0A2CFA7CF1124EACFC6DFD0
:100DF000A0F3959FD1F3950F50E0551F629FF0012E
:100E0000729FBB27F00DB11D639FAA27F00DB11D86
:100E1000AA1F649F6627B00DA11D661F829F22270F
:100E2000B00DA11D621F739FB00DA11D621F839F96
:100E3000A00D611D221F749F3327A00D611D231F6C
:100E4000849F600D211D822F762F6A2F11249F57BA
:100E500050408AF0E1F088234AF0EE0FFF1FBB1FDD
:100E6000661F771F881F91505040A9F79E3F51057C
:100E700070F05CCFA6CF5F3FECF3983EDCF3869535
:100E800077956795B795F795E7959F5FC1F7FE2B27
:100E9000880F911D9695879597F9089523DF880B04
:100EA000990B0895A1E21A2EAA1BBB1BFD010DC0D0
:100EB000AA1FBB1FEE1FFF1FA217B307E407F5070A
:100EC00020F0A21BB30BE40BF50B661F771F881FE6
:100ED000991F1A9469F760957095809590959B017C
:100EE000AC01BD01CF010895EE0FFF1F0590F491F5
:080EF000E02D0994F894FFCFF6
:100EF8000100000000FE009E02A000CF00B300F336
:100F0800006E616E00696E66006F7666002E0000E6
:00000001FF
