:100000000C945E000C9486000C9486000C94860080
:100010000C9486000C9486000C9486000C94B9070E
:100020000C9486000C9486000C9486000C94860038
:100030000C9486000C9486000C9486000C94860028
:100040000C94FD000C9486000C9407030C944A0356
:100050000C9486000C9486000C9486000C94860008
:100060000C9486000C94860000000007000201003A
:100070000003040600000000000000000102040864
:100080001020408001020408102001020408102002
:10009000040404040404040402020202020203032E
:1000A0000303030300000000250028002B000000CC
:1000B0000000240027002A000200060411241FBEAD
:1000C000CFEFD8E0DEBFCDBF11E0A0E0B1E0E8E9BE
:1000D000F1E102C005900D92A231B107D9F711E00C
:1000E000A2E1B1E001C01D92AA3DB107E1F710E025
:1000F000CCEBD0E004C02297FE010E94C608CA3BA8
:10010000D107C9F70E945C040C945C080C940000B1
:1001100040E855E260E070E08BE191E00C948503EB
:10012000AF92BF92CF92DF92EF92FF920F931F9305
:10013000CF93DF938EE00E94DC00EC014AE050E0B8
:10014000BC018BE191E00E946B05BE01882777FD21
:100150008095982F1F921F9225E02F932CED2F93BF
:1001600028E7A22EB12CC12CD12C18EEE12E13E0E1
:10017000F12E00E010E020E931E040E050E00E9484
:1001800015082AE030E040E050E089E00E94850553
:100190000F900F900F900F9061E070E080E090E082
:1001A000DF91CF911F910F91FF90EF90DF90CF9053
:1001B000BF90AF900C9471018E3008F08E50877014
:1001C0002091000140E4249F90011124822B809310
:1001D0007C0080917A00806480937A0080917A001C
:1001E00086FDFCCF2091780030917900932F80E03C
:1001F000AC01422B9A01C90108951F920F920FB6CC
:100200000F9211242F933F938F939F93AF93BF939C
:100210008091120190911301A0911401B0911501E8
:1002200030911A01232F2D5F2D3720F40196A11D47
:10023000B11D05C0232F2A570296A11DB11D209381
:100240001A018093120190931301A0931401B093AB
:1002500015018091160190911701A0911801B0919C
:1002600019010196A11DB11D8093160190931701EC
:10027000A0931801B0931901BF91AF919F918F91F5
:100280003F912F910F900FBE0F901F9018950F93D5
:100290001F939FB7F89400911601109117012091B8
:1002A00018013091190186B5A89B06C08F3F21F037
:1002B0000F5F1F4F2F4F3F4F9FBF322F212F102F08
:1002C0000027080F111D211D311D42E0000F111FD5
:1002D000221F331F4A95D1F7B801C9011F910F9111
:1002E0000895CF92DF92EF92FF92CF93DF936B014D
:1002F0007C010E944701EB010EC00E9447016C1B6C
:100300007D0B683E734038F081E0C81AD108E108DF
:10031000F108C851DC4FC114D104E104F10469F7BC
:10032000DF91CF91FF90EF90DF90CF900895789478
:1003300084B5826084BD84B5816084BD85B58260EA
:1003400085BD85B5816085BDEEE6F0E08081816088
:100350008083E1E8F0E01082808182608083808188
:1003600081608083E0E8F0E0808181608083E1EB60
:10037000F0E0808184608083E0EBF0E08081816048
:100380008083EAE7F0E080818460808380818260FE
:1003900080838081816080838081806880831092E7
:1003A000C1000895833069F028F48130A1F08230D3
:1003B00011F514C08630B1F08730C1F08430D9F423
:1003C00004C0809180008F7703C0809180008F7D72
:1003D00080938000089584B58F7702C084B58F7DA7
:1003E00084BD08958091B0008F7703C08091B000E4
:1003F0008F7D8093B0000895CF93DF9390E0FC0150
:10040000E458FF4F4491FC01E057FF4F849188234B
:1004100041F190E0880F991FFC01E255FF4F2591B3
:100420003491D9018C559F4FFC0185919491C82F2F
:10043000D92F9FB7F8948C91611106C04095842301
:100440008C938881842308C0623041F4242F209546
:1004500082238C938881842B888302C0842B8C9385
:100460009FBFDF91CF9108950F931F93CF93DF9399
:100470001F92CDB7DEB7282F30E0F901E859FF4FC2
:100480008491F901E458FF4F1491F901E057FF4FAF
:1004900004910023D1F0882321F069830E94D201C6
:1004A0006981E02FF0E0EE0FFF1FEC55FF4F8591C3
:1004B0009491DC019FB7F8948C91611103C0109561
:1004C000812301C0812B8C939FBF0F90DF91CF912F
:1004D0001F910F910895FC0184859585FC01E05CD6
:1004E000FF4F20813181FC01EE5BFF4F80819181C4
:1004F000281B390B2F733327C9010895FC0184850C
:100500009585FC01E05CFF4F40815181FC01EE5B71
:10051000FF4F208131814217530741F00190F08154
:10052000E02DE80FF91F208130E002C02FEF3FEFF0
:10053000C9010895FC0184859585FC01E05CFF4FAD
:1005400040815181FC01EE5BFF4F208131814217D8
:10055000530781F0A081B181A80FB91F8C91208130
:1005600031812F5F3F4F2F73332731832083282F13
:1005700030E002C02FEF3FEFC9010895FC0181A1D7
:10058000882329F0A489B5898C9186FFFBCF11A21D
:100590000895CF93DF93FC0126853785D901A05CB0
:1005A000BF4F8D919C91119701968F739927E90107
:1005B000CE5BDF4F4881598184179507D9F30D90A1
:1005C000BC91A02DA20FB31F6C93A685B785A05C2C
:1005D000BF4F11969C938E93A689B7892C9181E089
:1005E00090E0078C02C0880F991F0A94E2F7282B2D
:1005F0002C9381E081A30488F589E02D80818064BB
:10060000808381E090E0DF91CF91089508951F925B
:100610000F920FB60F9211242F933F934F938F9306
:100620009F93EF93FF938091C00082FD1CC0409187
:10063000C6008091C1019091C20101968F739927E4
:100640002091C3013091C4018217930771F0E091AA
:10065000C101F091C201EF57FE4F40839093C20158
:100660008093C10102C08091C600FF91EF919F91DC
:100670008F914F913F912F910F900FBE0F901F9030
:1006800018958BE191E00E946B02892B11F00C947C
:10069000060308951F920F920FB60F9211242F9305
:1006A0003F938F939F93EF93FF9320917D01309120
:1006B0007E0180917F01909180012817390731F4E4
:1006C0008091C1008F7D8093C10014C0E0917F01B3
:1006D000F0918001E35CFE4F208180917F01909139
:1006E000800101968F7399279093800180937F01F9
:1006F0002093C600FF91EF919F918F913F912F9191
:100700000F900FBE0F901F901895CF92DF92EF922F
:10071000FF92CF93DF93EC016A017B01411581EEDB
:10072000580761057105F9F0EC89FD8981E090E0D9
:1007300008A002C0880F991F0A94E2F7808360E046
:1007400079E08DE390E0A70196010E947A0821509C
:100750003109410951095695479537952795211536
:1007600080E1380798F0EC89FD89108260E874E830
:100770008EE190E0A70196010E947A08215031098C
:10078000410951095695479537952795E889F98983
:100790003083EA89FB89208319A2EE89FF89408191
:1007A00081E090E09C010C8C02C0220F331F0A9460
:1007B000E2F7422B4083EE89FF8940819C010D8C3A
:1007C00002C0220F331F0A94E2F7422B4083EE89C6
:1007D000FF8940819C010E8C02C0220F331F0A94B6
:1007E000E2F7422B4083EE89FF8920810F8C02C003
:1007F000880F991F0A94E2F7809582238083DF9106
:10080000CF91FF90EF90DF90CF90089510921E014E
:1008100010921D0188EE93E0A0E0B0E080931F01EC
:1008200090932001A0932101B093220186E091E0F2
:1008300090931C0180931B0181E891E09093280123
:10084000809327018DE391E090932A018093290101
:1008500085EC90E090932C0180932B0184EC90E048
:1008600090932E0180932D0180EC90E090933001C5
:1008700080932F0181EC90E09093320180933101BD
:1008800082EC90E0909334018093330186EC90E009
:10089000909336018093350184E08093370183E0A3
:1008A0008093380187E08093390185E080933A0195
:1008B00081E080933B0108950E9497010E94880087
:1008C000C1E4D3E00E9490002097E1F30E9441032D
:1008D000F9CFCF92DF92EF92FF920F931F93CF93B6
:1008E000DF936C01EB017A01E60EF71E00E010E0E9
:1008F0000BC06991D601ED91FC910190F081E02D42
:10090000C6010995080F191FCE15DF0591F7C8011B
:10091000DF91CF911F910F91FF90EF90DF90CF90DB
:1009200008956115710581F0DB010D900020E9F754
:10093000AD0141505109461B570BDC01ED91FC9173
:100940000280F381E02D099480E090E00895DC01BD
:10095000ED91FC910190F081E02D09940F931F938C
:10096000CF93DF93EC016DE00E94A7048C016AE055
:10097000CE010E94A7049C01200F311FC901DF9105
:10098000CF911F910F9108954F925F926F927F9236
:100990009F92AF92BF92CF92DF92EF92FF920F930E
:1009A0001F93CF93DF93CDB7DEB7A1970FB6F8941F
:1009B000DEBF0FBECDBF5C016A017B01922E19A282
:1009C00081E0821710F08AE0982E8E010F5D1F4F94
:1009D000492C512C612C712CC701B601A301920145
:1009E0000E947A088C2D929E8019112401501109C1
:1009F0008A3014F4805D01C0895CF801808369014C
:100A00007A01C114D104E104F10431F7B801C50140
:100A10000E949104A1960FB6F894DEBF0FBECDBF21
:100A2000DF91CF911F910F91FF90EF90DF90CF90CA
:100A3000BF90AF909F907F906F905F904F90089580
:100A4000CF92DF92EF92FF920F931F93CF93DF939A
:100A5000EC016A017B012115310579F4E881F98106
:100A60000190F081E02D642FDF91CF911F910F91C4
:100A7000FF90EF90DF90CF9009942A30310519F460
:100A800077FD0EC02AE0B701A601CE01DF91CF911C
:100A90001F910F91FF90EF90DF90CF900C94C404C2
:100AA0006DE20E94A7048C0144275527BA014C1916
:100AB0005D096E097F092AE0CE010E94C404080F77
:100AC000191FC801DF91CF911F910F91FF90EF90F7
:100AD000DF90CF9008950F931F93CF93DF93EC0196
:100AE0009A01AB01662757FD6095762F0E9420057D
:100AF0008C01CE010E94AE049801280F391FC90154
:100B0000DF91CF911F910F9108953F924F925F9285
:100B10006F927F928F929F92AF92BF92CF92DF920D
:100B2000EF92FF920F931F93CF93DF9300D000D0EB
:100B3000CDB7DEB78B0129013A01909101019817D9
:100B400021F09F3F09F0CAC104C0E8EBF0E0349007
:100B50007EC080930101E8EBF0E034909FEF3916FE
:100B600009F4BCC1E1E03E1631F1F2E03F1609F4B0
:100B700048C031106CC014BC15BC94B5926094BDD3
:100B800095B5916095BD282F30E0F901E057FF4FF2
:100B9000E491F0E0EE0FFF1FEC55FF4F45915491AB
:100BA0004093D4015093D501F901E458FF4F2491AB
:100BB0002093D3014EC0109280001092810090913A
:100BC0008100986090938100909181009160909352
:100BD0008100282F30E0F901E057FF4FE491F0E069
:100BE000EE0FFF1FEC55FF4F459154914093CD01FF
:100BF0005093CE01F901E458FF4F24912093CC018A
:100C000028C01092B0001092B1009091B000926094
:100C10009093B0009091B10091609093B100282F13
:100C200030E0F901E057FF4FE491F0E0EE0FFF1FD5
:100C3000EC55FF4F459154914093C6015093C70125
:100C4000F901E458FF4F24912093C50102C037FCFD
:100C500045C161E00E94FC014801A12CB12C60E07B
:100C600072E18AE790E0A50194010E949C0833207C
:100C700019F082E03812B7C029833A834B835C8332
:100C800069017A0191E0C91AD108E108F108EFEF92
:100C9000CE16D104E104F10409F008F49AC060E42E
:100CA00072E48FE090E0A50194010E949C08690124
:100CB0007A01F1E0CF1AD108E108F10882E0381298
:100CC00019C09FEFC916D104E104F10409F008F43A
:100CD00001C160E970ED83E090E0A50194010E94FC
:100CE0009C0869017A01E1E0CE1AD108E108F10817
:100CF00083E001C082E0FFEFCF16D104E104F104EC
:100D000009F008F467C068E478EE81E090E0A5019E
:100D100094010E949C0869017A0181E0C81AD108F7
:100D2000E108F1083320E1F092E039121BC0EFEF47
:100D3000CE16D104E104F10409F008F4CDC064E258
:100D400074EF80E090E0A50194010E949C08690185
:100D50007A01F1E0CF1AD108E108F10885E003C07B
:100D600083E001C084E09FEFC916D104E104F104DF
:100D700089F180F162E17AE780E090E0A5019401D9
:100D80000E949C0869017A01E1E0CE1AD108E108CD
:100D9000F108311002C084E001C086E0FFEFCF16F9
:100DA000D104E104F104B1F0A8F0C980DA80EB804D
:100DB000FC809AE0F594E794D794C7949A95D1F77C
:100DC00081E0C81AD108E108F108332031F087E04A
:100DD00007C081E0332011F003C085E085BD2BC042
:100DE0008093B10028C069017A0191E0C91AD10845
:100DF000E108F108C114D104E1E0EE06F10488F045
:100E000068E478EE81E090E0A50194010E949C08DE
:100E100069017A01F1E0CF1AD108E108F10893E005
:100E200001C091E081E0381206C080918100887F86
:100E3000892B80938100411451046104710471F085
:100E4000D801AA0FBB1FA30192010E945F0828EEE0
:100E500033E040E050E00E947A0803C02FEF3FEFFC
:100E6000A90191E03916A1F0E2E03E1619F1311026
:100E700035C0C7BC2093D6013093D7014093D80129
:100E80005093D90180916E00826080936E0026C0DD
:100E9000D0928900C09288002093CF013093D00176
:100EA0004093D1015093D20180916F008260809372
:100EB0006F0014C0C092B3002093C8013093C901E1
:100EC0004093CA015093CB0180917000826080935F
:100ED000700004C082E084CF84E082CF0F900F9036
:100EE0000F900F90DF91CF911F910F91FF90EF9096
:100EF000DF90CF90BF90AF909F908F907F906F903A
:100F00005F904F903F900895813039F018F0823013
:100F1000D1F409C010926E00089580916F008D7F0A
:100F200080936F000895809170008D7F8093700092
:100F300081E08093B0008091B100887F84608093CD
:100F4000B1001092B3000895CF93C82F8091010192
:100F50008C1307C0E8EBF0E084919FEF90930101C0
:100F600001C08FEF0E94840760E08C2FCF910C941A
:100F700034021F920F920FB60F9211242F933F93BA
:100F80004F935F936F937F938F939F93AF93BF9391
:100F9000EF93FF938091C8019091C901A091CA017C
:100FA000B091CB01892B8A2B8B2B51F19091C501EC
:100FB000E091C601F091C7018081892780838091EB
:100FC000C8019091C901A091CA01B091CB01181636
:100FD00019061A061B06C4F48091C8019091C90134
:100FE000A091CA01B091CB010197A109B1098093E9
:100FF000C8019093C901A093CA01B093CB0104C06A
:10100000809101010E94A407FF91EF91BF91AF91E0
:101010009F918F917F916F915F914F913F912F9110
:101020000F900FBE0F901F9018954F925F926F9286
:101030007F92AF92BF92CF92DF92EF92FF920F9387
:101040001F93CF93DF93CDB7DEB729013A01621B1F
:10105000730B840B950B29893A894B895C892A1972
:101060003B094C095D09298B3A8B4B8B5C8B9B01AF
:10107000AC0169897A898B899C890E946A08E41885
:10108000F50806091709A80197010E949C082A0D76
:101090003B1D4C1D5D1DB901CA01DF91CF911F9110
:1010A0000F91FF90EF90DF90CF90BF90AF907F9027
:1010B0006F905F904F900895F8940C94CA080E9426
:1010C000B808A59F900DB49F900DA49F800D911D11
:1010D00011240895DB018F939F930E945F08BF91B5
:1010E000AF91A29F800D911DA39F900DB29F900D77
:1010F00011240895A1E21A2EAA1BBB1BFD010DC0ED
:10110000AA1FBB1FEE1FFF1FA217B307E407F507B7
:1011100020F0A21BB30BE40BF50B661F771F881F93
:10112000991F1A9469F760957095809590959B0129
:10113000AC01BD01CF010895052E97FB16F4009474
:1011400007D057FD0DD00E947A0807FC09D07EF425
:1011500090958095709561957F4F8F4F9F4F089523
:1011600050954095309521953F4F4F4F5F4F0895D3
:10117000A29FB001B39FC001A39F01D0B29F700D89
:10118000811D1124911D0895EE0FFF1F0590F4910C
:08119000E02D0994F894FFCF53
:1011980001FF00000000C90269046B029A027E0286
:0211A800BE0285
:00000001FF
