:100000000C945D000C9485000C9485000C94850084
:100010000C9485000C9485000C9485000C9485004C
:100020000C9485000C9485000C9485000C9485003C
:100030000C9485000C9485000C9485000C9485002C
:100040000C9465010C9485000C9431030C9474039A
:100050000C9485000C9485000C9485000C9485000C
:100060000C9485000C94850000000007000201003C
:100070000003040600000000000000000102040864
:100080001020408001020408102001020408102002
:10009000040404040404040402020202020203032E
:1000A0000303030300000000250028002B000000CC
:1000B0000000240027002A00300411241FBECFEFC7
:1000C000D8E0DEBFCDBF11E0A0E0B1E0E6EFF1E1A6
:1000D00002C005900D92A234B107D9F712E0A2E454
:1000E000B1E001C01D92A530B107E1F710E0CAEB05
:1000F000D0E004C02297FE010E94F508C83BD1075A
:10010000C9F70E9486040C94AF060C94000061E0CD
:100110008DE00E94260260E08DE00E945E0240E8D1
:1001200055E260E070E08BE591E00C94AF03CF9274
:10013000DF92EF92FF9261E08DE00E945E020E94EA
:10014000AF0160934E0170934F01809350019093E3
:10015000510181E00E944401892BD9F70E94AF012F
:100160006B017C0180914E0190914F01A091500153
:10017000B0915101C81AD90AEA0AFB0AC0924A0191
:10018000D0924B01E0924C01F0924D01C701B601B3
:100190000E94B40720E030E44CE156E40E941B07C3
:1001A00020E030E04AE754E40E946A086093460188
:1001B0007093470180934801909349012AE030E011
:1001C000B701A6018BE591E00E945E0561E071E058
:1001D0008BE591E00E94EE04C0904601D09047016B
:1001E000E0904801F090490120E030E040E85FE312
:1001F000C701B6010E94660818165CF422E030E0E0
:10020000B701A6018BE591E00E94AD066AE071E0BE
:100210001DC020E030E04AE754E4C701B6010E9467
:100220006A08FB01462F5F2F682F792F4093420108
:1002300050934301609344017093450122E030E004
:100240008BE591E00E94AD0667E171E08BE591E0FE
:100250000E94EE0460E08DE00E945E0261E08BE0AF
:100260000E94260260E08BE00E945E0280E00E9415
:10027000440118161906D4F360E08BE0FF90EF906C
:10028000DF90CF900C9426028E3008F08E5087704D
:100290002091000140E4249F90011124822B80933F
:1002A0007C0080917A00806480937A0080917A004B
:1002B00086FDFCCF2091780030917900932F80E06B
:1002C000AC01422B9A01C90108951F920F920FB6FB
:1002D0000F9211242F933F938F939F93AF93BF93CC
:1002E0008091520190915301A0915401B091550118
:1002F00030915A01232F2D5F2D3720F40196A11D37
:10030000B11D05C0232F2A570296A11DB11D2093B0
:100310005A018093520190935301A0935401B093DA
:1003200055018091560190915701A0915801B091CB
:1003300059010196A11DB11D80935601909357015B
:10034000A0935801B0935901BF91AF919F918F91A4
:100350003F912F910F900FBE0F901F9018950F9304
:100360001F938FB7F894009152011091530120917F
:100370005401309155018FBFB801C9011F910F91F0
:100380000895789484B5826084BD84B5816084BD0D
:1003900085B5826085BD85B5816085BDEEE6F0E0FE
:1003A000808181608083E1E8F0E01082808182605A
:1003B0008083808181608083E0E8F0E080818160DB
:1003C0008083E1EBF0E0808184608083E0EBF0E00B
:1003D000808181608083EAE7F0E0808184608083AF
:1003E0008081826080838081816080838081806859
:1003F00080831092C1000895833069F028F4813021
:10040000A1F0823011F514C08630B1F08730C1F010
:100410008430D9F404C0809180008F7703C080912C
:1004200080008F7D80938000089584B58F7702C00F
:1004300084B58F7D84BD08958091B0008F7703C00F
:100440008091B0008F7D8093B0000895CF93DF93AB
:1004500090E0FC01E458FF4F4491FC01E057FF4F4E
:100460008491882341F190E0880F991FFC01E255A7
:10047000FF4F25913491D9018C559F4FFC018591F7
:100480009491C82FD92F9FB7F8948C91611106C011
:10049000409584238C938881842308C0623041F482
:1004A000242F209582238C938881842B888302C0FB
:1004B000842B8C939FBFDF91CF9108950F931F934F
:1004C000CF93DF931F92CDB7DEB7282F30E0F9012D
:1004D000E859FF4F8491F901E458FF4F1491F90155
:1004E000E057FF4F04910023D1F0882321F0698366
:1004F0000E94FC016981E02FF0E0EE0FFF1FEC5538
:10050000FF4F85919491DC019FB7F8948C91611114
:1005100003C01095812301C0812B8C939FBF0F9046
:10052000DF91CF911F910F910895FC0184859585EE
:10053000FC01E05CFF4F20813181FC01EE5BFF4F4D
:1005400080819181281B390B2F733327C9010895AE
:10055000FC0184859585FC01E05CFF4F4081518161
:10056000FC01EE5BFF4F208131814217530741F0C0
:100570000190F081E02DE80FF91F208130E002C0EA
:100580002FEF3FEFC9010895FC0184859585FC019B
:10059000E05CFF4F40815181FC01EE5BFF4F208109
:1005A00031814217530781F0A081B181A80FB91F93
:1005B0008C91208131812F5F3F4F2F7333273183FF
:1005C0002083282F30E002C02FEF3FEFC9010895AC
:1005D000FC0181A1882329F0A489B5898C9186FF2B
:1005E000FBCF11A20895CF93DF93FC0126853785B9
:1005F000D901A05CBF4F8D919C91119701968F738B
:100600009927E901CE5BDF4F48815981841795070F
:10061000D9F30D90BC91A02DA20FB31F6C93A685AA
:10062000B785A05CBF4F11969C938E93A689B7891E
:100630002C9181E090E0078C02C0880F991F0A94EA
:10064000E2F7282B2C9381E081A30488F589E02D23
:1006500080818064808381E090E0DF91CF91089574
:1006600008951F920F920FB60F9211242F933F936C
:100670004F938F939F93EF93FF938091C00082FDE0
:100680001CC04091C6008091010290910202019627
:100690008F739927209103023091040282179307E8
:1006A00071F0E0910102F0910202EF53FE4F40839E
:1006B000909302028093010202C08091C600FF91D4
:1006C000EF919F918F914F913F912F910F900FBE7E
:1006D0000F901F9018958BE591E00E949502892B51
:1006E00011F00C94300308951F920F920FB60F92E1
:1006F00011242F933F938F939F93EF93FF93209118
:10070000BD013091BE018091BF019091C0012817B9
:10071000390731F48091C1008F7D8093C10014C0EE
:10072000E091BF01F091C001E358FE4F208180911C
:10073000BF019091C00101968F7399279093C001DA
:100740008093BF012093C600FF91EF919F918F91FD
:100750003F912F910F900FBE0F901F901895CF9241
:10076000DF92EF92FF92CF93DF93EC016A017B015E
:10077000411581EE580761057105F9F0EC89FD8995
:1007800081E090E008A002C0880F991F0A94E2F768
:10079000808360E079E08DE390E0A70196010E94FC
:1007A000D10821503109410951095695479537958E
:1007B0002795211580E1380798F0EC89FD89108292
:1007C00060E874E88EE190E0A70196010E94D108EC
:1007D000215031094109510956954795379527957B
:1007E000E889F9893083EA89FB89208319A2EE8997
:1007F000FF89408181E090E09C010C8C02C0220FB7
:10080000331F0A94E2F7422B4083EE89FF8940812F
:100810009C010D8C02C0220F331F0A94E2F7422B79
:100820004083EE89FF8940819C010E8C02C0220F1B
:10083000331F0A94E2F7422B4083EE89FF8920811F
:100840000F8C02C0880F991F0A94E2F780958223CB
:100850008083DF91CF91FF90EF90DF90CF9008954C
:1008600010925E0110925D0188EE93E0A0E0B0E08E
:1008700080935F0190936001A0936101B093620146
:1008800088E291E090935C0180935B0181EC91E0C0
:1008900090936801809367018DE791E090936A01DE
:1008A0008093690185EC90E090936C0180936B01DB
:1008B00084EC90E090936E0180936D0180EC90E069
:1008C0009093700180936F0181EC90E0909372019E
:1008D0008093710182EC90E0909374018093730196
:1008E00086EC90E0909376018093750184E080938C
:1008F000770183E08093780187E08093790185E038
:1009000080937A0181E080937B0108950E94C10168
:100910000E948700CBE6D3E00E9497002097E1F386
:100920000E946B03F9CFCF92DF92EF92FF920F9369
:100930001F93CF93DF936C01EB017A01E60EF71E54
:1009400000E010E00BC06991D601ED91FC9101909F
:10095000F081E02DC6010995080F191FCE15DF059E
:1009600091F7C801DF91CF911F910F91FF90EF9008
:10097000DF90CF9008956115710581F0DB010D9036
:100980000020E9F7AD0141505109461B570BDC012E
:10099000ED91FC910280F381E02D099480E090E0DC
:1009A0000895DC01ED91FC910190F081E02D099416
:1009B0000F931F93CF93DF93EC016DE00E94D1045E
:1009C0008C016AE0CE010E94D1049C01200F311FEE
:1009D000C901DF91CF911F910F9108950F931F933C
:1009E000CF93DF93EC010E94BB048C01CE010E94E7
:1009F000D8049801280F391FC901DF91CF911F91A9
:100A00000F9108954F925F926F927F929F92AF9253
:100A1000BF92CF92DF92EF92FF920F931F93CF93EB
:100A2000DF93CDB7DEB7A1970FB6F894DEBF0FBE48
:100A3000CDBF5C016A017B01922E19A281E0821771
:100A400010F08AE0982E8E010F5D1F4F492C512C1B
:100A5000612C712CC701B601A30192010E94D1083B
:100A60008C2D929E80191124015011098A3014F4A2
:100A7000805D01C0895CF801808369017A01C1143D
:100A8000D104E104F10431F7B801C5010E94BB04AF
:100A9000A1960FB6F894DEBF0FBECDBFDF91CF9108
:100AA0001F910F91FF90EF90DF90CF90BF90AF908C
:100AB0009F907F906F905F904F9008952115310522
:100AC00041F4DC01ED91FC910190F081E02D642F67
:100AD00009940C940205CF92DF92EF92FF920F934C
:100AE0001F93CF93DF93EC016A017B012115310540
:100AF00079F4E881F9810190F081E02D642FDF9194
:100B0000CF911F910F91FF90EF90DF90CF900994BC
:100B10002A30310519F477FD0EC02AE0B701A6018D
:100B2000CE01DF91CF911F910F91FF90EF90DF9059
:100B3000CF900C9402056DE20E94D1048C014427F1
:100B40005527BA014C195D096E097F092AE0CE01CB
:100B50000E940205080F191FC801DF91CF911F9154
:100B60000F91FF90EF90DF90CF9008957F928F923A
:100B70009F92AF92BF92CF92DF92EF92FF920F932C
:100B80001F93CF93DF93EC016A017B01122F9A012F
:100B9000AB01C701B6010E94CD08882319F064E3B8
:100BA00071E032C046015701E894B7F82FEF3FEFEC
:100BB0004FE75FE7C501B4010E94CD0881110DC068
:100BC0002FEF3FEF4FE75FE7C501B4010E94170722
:100BD00018161CF468E371E017C02FEF3FEF4FE7E2
:100BE0005FE4C701B6010E94660818160CF40AC03B
:100BF0002FEF3FEF4FE75FECC701B6010E941707E9
:100C000087FF12C06CE371E0CE01DF91CF911F919D
:100C10000F91FF90EF90DF90CF90BF90AF909F909B
:100C20008F907F900C94BB0420E030E0A901C701B5
:100C3000B6010E94170787FF0AC06DE2CE010E942D
:100C4000D1045C01F7FAF094F7F8F09402C0A12CFB
:100C5000B12C00E060E070E080E09FE307C020E09E
:100C600030E040E251E40E941B070F5F0113F7CF11
:100C7000262F372F482F592FC701B6010E94B306E0
:100C8000762E872E982EC92E0E948807D62EE72E04
:100C9000F82E092F0E94B4079B01AC01672D782D17
:100CA000892D9C2D0E94B206C62E972E882E792E55
:100CB0002AE04D2D5E2D6F2D702FCE010E94020572
:100CC0007C01EA0CFB1C1123B9F160E471E0CE0158
:100CD0000E94BB04E80EF91E2FC020E030E040E285
:100CE00051E46C2D792D882D972D0E946A08762E5F
:100CF000072F6C019D2D0E9483074B01AA2497FCAE
:100D0000A094BA2C2AE030E0B501A401CE010E94E3
:100D10006B05E80EF91EC501B4010E94B6079B01E0
:100D2000AC01672D702F8C2D9D2D0E94B206C62E12
:100D3000972E882E792E11501111CFCFC701DF9138
:100D4000CF911F910F91FF90EF90DF90CF90BF90C8
:100D5000AF909F908F907F9008950C94B605F89473
:100D60000C94F9085058BB27AA270ED075C166D13C
:100D700030F06BD120F031F49F3F11F41EF45BC1D1
:100D80000EF4E095E7FB51C1E92F77D180F3BA1754
:100D9000620773078407950718F071F49EF58FC1F9
:100DA0000EF4E0950B2EBA2FA02D0B01B901900186
:100DB0000C01CA01A0011124FF27591B99F0593FCA
:100DC00050F4503E68F11A16F040A22F232F342F12
:100DD0004427585FF3CF469537952795A795F04060
:100DE0005395C9F77EF41F16BA0B620B730B840B75
:100DF000BAF09150A1F0FF0FBB1F661F771F881F2D
:100E0000C2F70EC0BA0F621F731F841F48F4879584
:100E100077956795B795F7959E3F08F0B3CF939573
:100E2000880F08F09927EE0F979587950895D9D0E8
:100E300008F481E008950CD00FC107D140F0FED036
:100E400030F021F45F3F19F0F0C0511139C1F3C007
:100E500014D198F39923C9F35523B1F3951B550B7E
:100E6000BB27AA2762177307840738F09F5F5F4F7D
:100E7000220F331F441FAA1FA9F333D00E2E3AF0BE
:100E8000E0E830D091505040E695001CCAF729D0D8
:100E9000FE2F27D0660F771F881FBB1F2617370727
:100EA0004807AB07B0E809F0BB0B802DBF01FF2757
:100EB00093585F4F2AF09E3F510568F0B6C000C1BD
:100EC0005F3FECF3983EDCF3869577956795B79591
:100ED000F7959F5FC9F7880F911D9695879597F9AC
:100EE0000895E1E0660F771F881FBB1F6217730725
:100EF0008407BA0720F0621B730B840BBA0BEE1F3A
:100F000088F7E095089504D06894B111D9C0089588
:100F1000BCD088F09F5790F0B92F9927B751A0F017
:100F2000D1F0660F771F881F991F1AF0BA95C9F77D
:100F300012C0B13081F0C3D0B1E00895C0C0672FB6
:100F4000782F8827B85F39F0B93FCCF3869577952D
:100F50006795B395D9F73EF4909580957095619516
:100F60007F4F8F4F9F4F0895E89409C097FB3EF441
:100F700090958095709561957F4F8F4F9F4F9923E6
:100F8000A9F0F92F96E9BB279395F6958795779564
:100F90006795B795F111F8CFFAF4BB0F11F460FF24
:100FA0001BC06F5F7F4F8F4F9F4F16C0882311F07C
:100FB00096E911C0772321F09EE8872F762F05C090
:100FC000662371F096E8862F70E060E02AF09A952B
:100FD000660F771F881FDAF7880F9695879597F920
:100FE0000895990F0008550FAA0BE0E8FEEF1616BA
:100FF0001706E807F907C0F012161306E407F5070D
:1010000098F0621B730B840B950B39F40A2661F080
:10101000232B242B252B21F408950A2609F4A14023
:10102000A6958FEF811D811D089597F99F6780E830
:1010300070E060E008959FEF80EC089500240A942A
:101040001616170618060906089500240A941216A3
:101050001306140605060895092E0394000C11F4D6
:10106000882352F0BB0F40F4BF2B11F460FF04C083
:101070006F5F7F4F8F4F9F4F089557FD9058440FDC
:10108000551F59F05F3F71F04795880F97FB991FE7
:1010900061F09F3F79F087950895121613061406A4
:1010A000551FF2CF4695F1DF08C016161706180631
:1010B000991FF1CF86957105610508940895E8940C
:1010C000BB2766277727CB0197F908958ADF08F4B5
:1010D0008FEF08950BD0C0CFB1DF28F0B6DF18F046
:1010E000952309F0A2CFA7CF1124EACFC6DFA0F342
:1010F000959FD1F3950F50E0551F629FF001729FAD
:10110000BB27F00DB11D639FAA27F00DB11DAA1FCB
:10111000649F6627B00DA11D661F829F2227B00D18
:10112000A11D621F739FB00DA11D621F839FA00DA3
:10113000611D221F749F3327A00D611D231F849FF3
:10114000600D211D822F762F6A2F11249F5750404A
:101150008AF0E1F088234AF0EE0FFF1FBB1F661FE5
:10116000771F881F91505040A9F79E3F510570F09E
:101170005CCFA6CF5F3FECF3983EDCF38695779586
:101180006795B795F795E7959F5FC1F7FE2B880F99
:10119000911D9695879597F9089523DF880B990BF4
:1011A0000895A1E21A2EAA1BBB1BFD010DC0AA1FA8
:1011B000BB1FEE1FFF1FA217B307E407F50720F0C0
:1011C000A21BB30BE40BF50B661F771F881F991F3B
:1011D0001A9469F760957095809590959B01AC0184
:1011E000BD01CF010895EE0FFF1F0590F491E02D92
:0611F0000994F894FFCF02
:1011F60001206D53202020202000206D6963726F2E
:101206006661726164730020206E616E6F46617262
:101216006164730000000000F30293049502C402A7
:10122600A802E8026E616E00696E66006F7666005F
:021236002E0088
:00000001FF
