:100000000C9435000C945D000C945D000C945D0024
:100010000C945D000C945D000C945D000C945D00EC
:100020000C945D000C945D000C945D000C945D00DC
:100030000C945D000C945D000C945D000C945D00CC
:100040000C9496000C945D000C947B010C94B5010B
:100050000C945D000C945D000C945D000C945D00AC
:100060000C945D000C945D00F00111241FBECFEFD5
:10007000D8E0DEBFCDBF11E0A0E0B1E0E6E9FAE0F4
:1000800002C005900D92AA3CB107D9F712E0AAEC84
:10009000B1E001C01D92A338B107E1F710E0CAE654
:1000A000D0E004C02297FE010E944505C836D10762
:1000B000C9F70E945F000C946E020C940000FF923E
:1000C0000F931F93CF93DF93C0E0D0E09AE0F92E17
:1000D00006EB11E08091B4019091B5010197F89E73
:1000E000F001F99EF00D1124EC0FFD1FEE0FFF1F24
:1000F000E050FF4F81818F9380818F931F930F93E7
:100100000E94710221960F900F900F900F90C830AF
:10011000D10501F78AE090E00E94880280E090E03B
:10012000DF91CF911F910F91FF9008951F920F9231
:100130000FB60F9211242F933F938F939F93AF93FA
:10014000BF938091CA019091CB01A091CC01B09155
:10015000CD013091D201232F2D5F2D3720F4019650
:10016000A11DB11D05C0232F2A570296A11DB11D47
:100170002093D2018093CA019093CB01A093CC012C
:10018000B093CD018091CE019091CF01A091D0018B
:10019000B091D1010196A11DB11D8093CE01909324
:1001A000CF01A093D001B093D101BF91AF919F91A6
:1001B0008F913F912F910F900FBE0F901F90189528
:1001C000FC0184859585FC01E05CFF4F2081318135
:1001D000FC01EE5BFF4F80819181281B390B2F734F
:1001E0003327C9010895FC0184859585FC01E05CF5
:1001F000FF4F40815181FC01EE5BFF4F2081318137
:100200004217530741F00190F081E02DE80FF91FEC
:10021000208130E002C02FEF3FEFC9010895FC01BB
:1002200084859585FC01E05CFF4F40815181FC0194
:10023000EE5BFF4F208131814217530781F0A0818F
:10024000B181A80FB91F8C91208131812F5F3F4F61
:100250002F73332731832083282F30E002C02FEF04
:100260003FEFC9010895FC0181A1882329F0A489E9
:10027000B5898C9186FFFBCF11A20895CF93DF93B0
:10028000FC0126853785D901A05CBF4F8D919C91DB
:10029000119701968F739927E901CE5BDF4F488153
:1002A000598184179507D9F30D90BC91A02DA20F09
:1002B000B31F6C93A685B785A05CBF4F11969C9326
:1002C0008E93A689B7892C9181E090E0078C02C0BB
:1002D000880F991F0A94E2F7282B2C9381E081A3C1
:1002E0000488F589E02D80818064808381E090E03E
:1002F000DF91CF9108951F920F920FB60F921124A4
:100300002F933F934F938F939F93EF93FF938091FE
:10031000C00082FD1CC04091C6008091790290917E
:100320007A0201968F73992720917B0230917C028B
:100330008217930771F0E0917902F0917A02E75CFD
:10034000FD4F408390937A028093790202C080919E
:10035000C600FF91EF919F918F914F913F912F9107
:100360000F900FBE0F901F9018951F920F920FB60F
:100370000F9211242F933F938F939F93EF93FF93AB
:1003800020913502309136028091370290913802E7
:100390002817390731F48091C1008F7D8093C10007
:1003A00014C0E0913702F0913802EB50FE4F2081EB
:1003B000809137029091380201968F73992790931C
:1003C0003802809337022093C600FF91EF919F91EE
:1003D0008F913F912F910F900FBE0F901F90189506
:1003E0001092D6011092D50188EE93E0A0E0B0E023
:1003F0008093D7019093D801A093D901B093DA01EB
:100400008DEB91E09093D4018093D30189E392E046
:100410009093E0018093DF0185EF91E09093E201FA
:100420008093E10185EC90E09093E4018093E301F7
:1004300084EC90E09093E6018093E50180EC90E0FD
:100440009093E8018093E70181EC90E09093EA01BA
:100450008093E90182EC90E09093EC018093EB01B2
:1004600086EC90E09093EE018093ED0184E0809320
:10047000EF0183E08093F00187E08093F10185E054
:100480008093F20181E08093F3010895CF92DF928F
:10049000EF92FF920F931F93CF93DF936C01EB01C9
:1004A0007A01E60EF71E00E010E00BC06991D6015C
:1004B000ED91FC910190F081E02DC6010995080FA6
:1004C000191FCE15DF0591F7C801DF91CF911F915C
:1004D0000F91FF90EF90DF90CF900895F8940C94D7
:1004E0004905A2E0B0E0E7E7F2E00C941C05FE014C
:1004F000379661917191FA83E983AF0180917F0210
:10050000909180020E948F022296E2E00C943805BE
:1005100060917F02709180020E9482040895ACE095
:10052000B0E0E5E9F2E00C940C057C016B018A0176
:10053000FC0117821682838181FFC7C188248394BE
:10054000912C8C0E9D1EF7019381F60193FD8591F0
:1005500093FF81916F01882309F4B3C1853239F487
:1005600093FD859193FF81916F01853229F4B70145
:1005700090E00E948204E7CF712C312C20E02032E1
:10058000A8F48B3261F028F4803251F0833271F498
:100590000BC08D3239F0803349F4216028C02260CD
:1005A000246025C0286023C0206121C027FD27C00A
:1005B000382F30533A3078F426FF06C0FAE07F9E99
:1005C000300D1124732E13C08AE0389E300D112493
:1005D000332E20620CC08E3221F426FD72C12064BD
:1005E00006C08C3611F4206802C0883641F4F6014A
:1005F00093FD859193FF81916F018111C0CF982F59
:100600009554933018F09052933028F40C5F1F4F9C
:10061000FFE3F9830DC0833631F0833771F0833502
:1006200009F05EC023C0F801808189830E5F1F4FEF
:1006300066246394712C540115C02801F2E04F0E1A
:10064000511CF801A080B18026FF03C0672D70E027
:1006500002C06FEF7FEFC5012C870E9477043C0139
:1006600082012C856FE7262E222218C02801F2E095
:100670004F0E511CF801A080B18026FF03C0672DEA
:1006800070E002C06FEF7FEFC5012C870E946C0401
:100690003C012C8550E8252E222A820123FC1CC017
:1006A00006C0B70180E290E00E9482043A94832D54
:1006B00090E068167906A8F30FC0F50127FC859134
:1006C00027FE81915F01B70190E00E948204311002
:1006D0003A94F1E06F1A71086114710471F7EEC079
:1006E000843611F0893641F5F80127FF07C0608193
:1006F0007181828193810C5F1F4F08C0608171817D
:10070000882777FD8095982F0E5F1F4F4FE6642E48
:10071000622297FF09C090958095709561957F4FF3
:100720008F4F9F4FF0E86F2A2AE030E0A4010E942B
:10073000AE04A82EA81844C0853731F43FEEB32E7E
:10074000B2222AE030E024C099EFB92EB2228F36CF
:10075000B9F020F4883509F0B4C00DC0803721F01D
:10076000883709F0AEC002C020E1B22AB4FE0BC047
:1007700084E0B82A08C024FF09C0E6E0BE2A06C00B
:1007800028E030E005C020E130E002C020E132E0A6
:10079000F801B7FE07C060817181828193810C5F8F
:1007A0001F4F06C06081718180E090E00E5F1F4F97
:1007B000A4010E94AE04A82EA8188FE7682E6B2013
:1007C00066FE0BC0362D3E7FA71450F464FE0AC0AF
:1007D00062FC08C0362D3E7E05C0BA2C362D03C003
:1007E000BA2C01C0B72C34FF0DC0FE01EA0DF11D7B
:1007F0008081803311F4397E09C032FF06C0B39482
:10080000B39404C0832F867809F0B39433FD14C0E9
:1008100030FF0FC07A2CB31460F4730C7B18B32C28
:1008200008C0B70180E290E03C870E948204B39444
:100830003C85B314B0F304C0B31410F43B1801C0EA
:10084000312C34FF12C0B70180E390E03C870E9456
:1008500082043C8532FF1EC031FF03C088E590E072
:1008600002C088E790E0B7010CC0832F867891F032
:1008700031FD02C080E201C08BE237FD8DE2B7019D
:1008800090E00E94820406C0B70180E390E00E94DD
:1008900082047A94A714C0F3AA94F401EA0DF11D1E
:1008A000B701808190E00E948204A110F5CF06C0BC
:1008B000B70180E290E00E9482043A943110F8CFB0
:1008C00042CEF7012681378102C02FEF3FEFC901E9
:1008D0002C96E2E10C942805FC01059061507040D3
:1008E0000110D8F7809590958E0F9F1F0895FC01F9
:1008F0006150704001900110D8F7809590958E0F4F
:100900009F1F08950F931F93CF93DF938C01EB01EB
:100910008B8181FD03C00FEF1FEF1AC082FF0DC056
:100920002E813F818C819D812817390764F4E881ED
:10093000F9810193F983E88306C0E885F985802F62
:100940000995892B41F78E819F8101969F838E8324
:10095000C801DF91CF911F910F910895FA01AA2745
:10096000283051F1203181F1E8946F936E7F6E5FF2
:100970007F4F8F4F9F4FAF4FB1E03ED0B4E03CD0A0
:10098000670F781F891F9A1FA11D680F791F8A1F83
:10099000911DA11D6A0F711D811D911DA11D20D0EA
:1009A00009F468943F912AE0269F11243019305DA4
:1009B0003193DEF6CF010895462F4770405D419395
:1009C000B3E00FD0C9F7F6CF462F4F70405D4A33E2
:1009D00018F0495D31FD4052419302D0A9F7EACFAA
:1009E000B4E0A6959795879577956795BA95C9F7D9
:1009F00000976105710508959B01AC010A2E0694CC
:100A00005795479537952795BA95C9F7620F731F84
:100A1000841F951FA01D08952F923F924F925F92C1
:100A20006F927F928F929F92AF92BF92CF92DF92FE
:100A3000EF92FF920F931F93CF93DF93CDB7DEB763
:100A4000CA1BDB0B0FB6F894DEBF0FBECDBF0994F7
:100A50002A88398848885F846E847D848C849B844E
:100A6000AA84B984C884DF80EE80FD800C811B815C
:100A7000AA81B981CE0FD11D0FB6F894DEBF0FBE8B
:100A8000CDBFED010895EE0FFF1F0590F491E02D0D
:060A90000994F894FFCF69
:100A9600010000000000010001000100010000004B
:100AA600000000000000000001000000000001003E
:100AB6000000000000000000000000000000000030
:100AC600010001000000000000000000010000001D
:100AD600000001000100000000000000000000000E
:100AE60000000100000000000100000000000000FE
:100AF60000000000000001000000000000000000EF
:100B060000000000000000000000000000000100DE
:100B160001000100010000000000000000000000CC
:100B260000000000000000000000000000000000BF
:100B360000000000000001000100000000000000AD
:100B4600000000000100256400000000003E014690
:0A0B560002E0000F01F3003301007C
:00000001FF
